{
	"contracts/SmartContractWallet.sol": {
		"SmartContractWallet": {
			"abi": [
				{
					"inputs": [],
					"stateMutability": "nonpayable",
					"type": "constructor"
				},
				{
					"inputs": [
						{
							"internalType": "address payable",
							"name": "_to",
							"type": "address"
						},
						{
							"internalType": "uint256",
							"name": "_amount",
							"type": "uint256"
						},
						{
							"internalType": "bytes",
							"name": "_payload",
							"type": "bytes"
						}
					],
					"name": "Transfer",
					"outputs": [
						{
							"internalType": "bytes",
							"name": "",
							"type": "bytes"
						}
					],
					"stateMutability": "nonpayable",
					"type": "function"
				},
				{
					"inputs": [
						{
							"internalType": "address",
							"name": "",
							"type": "address"
						}
					],
					"name": "allowance",
					"outputs": [
						{
							"internalType": "uint256",
							"name": "",
							"type": "uint256"
						}
					],
					"stateMutability": "view",
					"type": "function"
				},
				{
					"inputs": [],
					"name": "confirmationsFromGuardiansForReset",
					"outputs": [
						{
							"internalType": "uint256",
							"name": "",
							"type": "uint256"
						}
					],
					"stateMutability": "view",
					"type": "function"
				},
				{
					"inputs": [
						{
							"internalType": "address",
							"name": "",
							"type": "address"
						}
					],
					"name": "guardians",
					"outputs": [
						{
							"internalType": "bool",
							"name": "",
							"type": "bool"
						}
					],
					"stateMutability": "view",
					"type": "function"
				},
				{
					"inputs": [
						{
							"internalType": "address",
							"name": "",
							"type": "address"
						}
					],
					"name": "isAllowedToSend",
					"outputs": [
						{
							"internalType": "bool",
							"name": "",
							"type": "bool"
						}
					],
					"stateMutability": "view",
					"type": "function"
				},
				{
					"inputs": [],
					"name": "owner",
					"outputs": [
						{
							"internalType": "address payable",
							"name": "",
							"type": "address"
						}
					],
					"stateMutability": "view",
					"type": "function"
				},
				{
					"inputs": [
						{
							"internalType": "address payable",
							"name": "_newOwner",
							"type": "address"
						}
					],
					"name": "proposeNewOwner",
					"outputs": [],
					"stateMutability": "nonpayable",
					"type": "function"
				},
				{
					"inputs": [
						{
							"internalType": "address",
							"name": "_for",
							"type": "address"
						},
						{
							"internalType": "uint256",
							"name": "_amount",
							"type": "uint256"
						}
					],
					"name": "setAllowance",
					"outputs": [],
					"stateMutability": "nonpayable",
					"type": "function"
				},
				{
					"inputs": [
						{
							"internalType": "address",
							"name": "_guardian",
							"type": "address"
						},
						{
							"internalType": "bool",
							"name": "_isGuardian",
							"type": "bool"
						}
					],
					"name": "setGuardian",
					"outputs": [],
					"stateMutability": "nonpayable",
					"type": "function"
				},
				{
					"stateMutability": "payable",
					"type": "receive"
				}
			],
			"devdoc": {
				"kind": "dev",
				"methods": {},
				"version": 1
			},
			"evm": {
				"assembly": "    /* \"contracts/SmartContractWallet.sol\":226:2710  contract SmartContractWallet {... */\n  mstore(0x40, 0x80)\n    /* \"contracts/SmartContractWallet.sol\":697:755  constructor() {... */\n  callvalue\n  dup1\n  iszero\n  tag_1\n  jumpi\n  0x00\n  dup1\n  revert\ntag_1:\n  pop\n    /* \"contracts/SmartContractWallet.sol\":737:747  msg.sender */\n  caller\n    /* \"contracts/SmartContractWallet.sol\":721:726  owner */\n  0x00\n  dup1\n    /* \"contracts/SmartContractWallet.sol\":721:748  owner = payable(msg.sender) */\n  0x0100\n  exp\n  dup2\n  sload\n  dup2\n  0xffffffffffffffffffffffffffffffffffffffff\n  mul\n  not\n  and\n  swap1\n  dup4\n  0xffffffffffffffffffffffffffffffffffffffff\n  and\n  mul\n  or\n  swap1\n  sstore\n  pop\n    /* \"contracts/SmartContractWallet.sol\":226:2710  contract SmartContractWallet {... */\n  dataSize(sub_0)\n  dup1\n  dataOffset(sub_0)\n  0x00\n  codecopy\n  0x00\n  return\nstop\n\nsub_0: assembly {\n        /* \"contracts/SmartContractWallet.sol\":226:2710  contract SmartContractWallet {... */\n      mstore(0x40, 0x80)\n      jumpi(tag_1, lt(calldatasize, 0x04))\n      shr(0xe0, calldataload(0x00))\n      dup1\n      0x3e5beab9\n      gt\n      tag_12\n      jumpi\n      dup1\n      0x3e5beab9\n      eq\n      tag_7\n      jumpi\n      dup1\n      0x83012be1\n      eq\n      tag_8\n      jumpi\n      dup1\n      0x850a6919\n      eq\n      tag_9\n      jumpi\n      dup1\n      0x8da5cb5b\n      eq\n      tag_10\n      jumpi\n      dup1\n      0xb1f8100d\n      eq\n      tag_11\n      jumpi\n      jump(tag_2)\n    tag_12:\n      dup1\n      0x0633b14a\n      eq\n      tag_3\n      jumpi\n      dup1\n      0x0bc605ad\n      eq\n      tag_4\n      jumpi\n      dup1\n      0x2b8a1c5a\n      eq\n      tag_5\n      jumpi\n      dup1\n      0x310ec4a7\n      eq\n      tag_6\n      jumpi\n      jump(tag_2)\n    tag_1:\n      jumpi(tag_2, calldatasize)\n      stop\n    tag_2:\n      0x00\n      dup1\n      revert\n        /* \"contracts/SmartContractWallet.sol\":440:481  mapping(address => bool) public guardians */\n    tag_3:\n      callvalue\n      dup1\n      iszero\n      tag_15\n      jumpi\n      0x00\n      dup1\n      revert\n    tag_15:\n      pop\n      tag_16\n      0x04\n      dup1\n      calldatasize\n      sub\n      dup2\n      add\n      swap1\n      tag_17\n      swap2\n      swap1\n      tag_18\n      jump\t// in\n    tag_17:\n      tag_19\n      jump\t// in\n    tag_16:\n      mload(0x40)\n      tag_20\n      swap2\n      swap1\n      tag_21\n      jump\t// in\n    tag_20:\n      mload(0x40)\n      dup1\n      swap2\n      sub\n      swap1\n      return\n        /* \"contracts/SmartContractWallet.sol\":387:434  mapping(address => bool) public isAllowedToSend */\n    tag_4:\n      callvalue\n      dup1\n      iszero\n      tag_22\n      jumpi\n      0x00\n      dup1\n      revert\n    tag_22:\n      pop\n      tag_23\n      0x04\n      dup1\n      calldatasize\n      sub\n      dup2\n      add\n      swap1\n      tag_24\n      swap2\n      swap1\n      tag_18\n      jump\t// in\n    tag_24:\n      tag_25\n      jump\t// in\n    tag_23:\n      mload(0x40)\n      tag_26\n      swap2\n      swap1\n      tag_21\n      jump\t// in\n    tag_26:\n      mload(0x40)\n      dup1\n      swap2\n      sub\n      swap1\n      return\n        /* \"contracts/SmartContractWallet.sol\":761:981  function setGuardian(address _guardian, bool _isGuardian) public {... */\n    tag_5:\n      callvalue\n      dup1\n      iszero\n      tag_27\n      jumpi\n      0x00\n      dup1\n      revert\n    tag_27:\n      pop\n      tag_28\n      0x04\n      dup1\n      calldatasize\n      sub\n      dup2\n      add\n      swap1\n      tag_29\n      swap2\n      swap1\n      tag_30\n      jump\t// in\n    tag_29:\n      tag_31\n      jump\t// in\n    tag_28:\n      stop\n        /* \"contracts/SmartContractWallet.sol\":1577:1920  function setAllowance ( address _for, uint _amount) public {... */\n    tag_6:\n      callvalue\n      dup1\n      iszero\n      tag_32\n      jumpi\n      0x00\n      dup1\n      revert\n    tag_32:\n      pop\n      tag_33\n      0x04\n      dup1\n      calldatasize\n      sub\n      dup2\n      add\n      swap1\n      tag_34\n      swap2\n      swap1\n      tag_35\n      jump\t// in\n    tag_34:\n      tag_36\n      jump\t// in\n    tag_33:\n      stop\n        /* \"contracts/SmartContractWallet.sol\":340:381  mapping(address => uint) public allowance */\n    tag_7:\n      callvalue\n      dup1\n      iszero\n      tag_37\n      jumpi\n      0x00\n      dup1\n      revert\n    tag_37:\n      pop\n      tag_38\n      0x04\n      dup1\n      calldatasize\n      sub\n      dup2\n      add\n      swap1\n      tag_39\n      swap2\n      swap1\n      tag_18\n      jump\t// in\n    tag_39:\n      tag_40\n      jump\t// in\n    tag_38:\n      mload(0x40)\n      tag_41\n      swap2\n      swap1\n      tag_42\n      jump\t// in\n    tag_41:\n      mload(0x40)\n      dup1\n      swap2\n      sub\n      swap1\n      return\n        /* \"contracts/SmartContractWallet.sol\":630:689  uint public constant confirmationsFromGuardiansForReset = 3 */\n    tag_8:\n      callvalue\n      dup1\n      iszero\n      tag_43\n      jumpi\n      0x00\n      dup1\n      revert\n    tag_43:\n      pop\n      tag_44\n      tag_45\n      jump\t// in\n    tag_44:\n      mload(0x40)\n      tag_46\n      swap2\n      swap1\n      tag_42\n      jump\t// in\n    tag_46:\n      mload(0x40)\n      dup1\n      swap2\n      sub\n      swap1\n      return\n        /* \"contracts/SmartContractWallet.sol\":1927:2668  function Transfer(address payable _to, uint _amount, bytes memory _payload) public returns(bytes memory){... */\n    tag_9:\n      callvalue\n      dup1\n      iszero\n      tag_47\n      jumpi\n      0x00\n      dup1\n      revert\n    tag_47:\n      pop\n      tag_48\n      0x04\n      dup1\n      calldatasize\n      sub\n      dup2\n      add\n      swap1\n      tag_49\n      swap2\n      swap1\n      tag_50\n      jump\t// in\n    tag_49:\n      tag_51\n      jump\t// in\n    tag_48:\n      mload(0x40)\n      tag_52\n      swap2\n      swap1\n      tag_53\n      jump\t// in\n    tag_52:\n      mload(0x40)\n      dup1\n      swap2\n      sub\n      swap1\n      return\n        /* \"contracts/SmartContractWallet.sol\":305:333  address payable public owner */\n    tag_10:\n      callvalue\n      dup1\n      iszero\n      tag_54\n      jumpi\n      0x00\n      dup1\n      revert\n    tag_54:\n      pop\n      tag_55\n      tag_56\n      jump\t// in\n    tag_55:\n      mload(0x40)\n      tag_57\n      swap2\n      swap1\n      tag_58\n      jump\t// in\n    tag_57:\n      mload(0x40)\n      dup1\n      swap2\n      sub\n      swap1\n      return\n        /* \"contracts/SmartContractWallet.sol\":987:1571  function proposeNewOwner(address payable _newOwner) public {... */\n    tag_11:\n      callvalue\n      dup1\n      iszero\n      tag_59\n      jumpi\n      0x00\n      dup1\n      revert\n    tag_59:\n      pop\n      tag_60\n      0x04\n      dup1\n      calldatasize\n      sub\n      dup2\n      add\n      swap1\n      tag_61\n      swap2\n      swap1\n      tag_62\n      jump\t// in\n    tag_61:\n      tag_63\n      jump\t// in\n    tag_60:\n      stop\n        /* \"contracts/SmartContractWallet.sol\":440:481  mapping(address => bool) public guardians */\n    tag_19:\n      mstore(0x20, 0x03)\n      dup1\n      0x00\n      mstore\n      keccak256(0x00, 0x40)\n      0x00\n      swap2\n      pop\n      sload\n      swap1\n      0x0100\n      exp\n      swap1\n      div\n      0xff\n      and\n      dup2\n      jump\t// out\n        /* \"contracts/SmartContractWallet.sol\":387:434  mapping(address => bool) public isAllowedToSend */\n    tag_25:\n      mstore(0x20, 0x02)\n      dup1\n      0x00\n      mstore\n      keccak256(0x00, 0x40)\n      0x00\n      swap2\n      pop\n      sload\n      swap1\n      0x0100\n      exp\n      swap1\n      div\n      0xff\n      and\n      dup2\n      jump\t// out\n        /* \"contracts/SmartContractWallet.sol\":761:981  function setGuardian(address _guardian, bool _isGuardian) public {... */\n    tag_31:\n        /* \"contracts/SmartContractWallet.sol\":858:863  owner */\n      0x00\n      dup1\n      sload\n      swap1\n      0x0100\n      exp\n      swap1\n      div\n      0xffffffffffffffffffffffffffffffffffffffff\n      and\n        /* \"contracts/SmartContractWallet.sol\":844:863  msg.sender == owner */\n      0xffffffffffffffffffffffffffffffffffffffff\n      and\n        /* \"contracts/SmartContractWallet.sol\":844:854  msg.sender */\n      caller\n        /* \"contracts/SmartContractWallet.sol\":844:863  msg.sender == owner */\n      0xffffffffffffffffffffffffffffffffffffffff\n      and\n      eq\n        /* \"contracts/SmartContractWallet.sol\":836:930  require(msg.sender == owner, \"You are not the owner. You cannot set a guardian, aborting...!\") */\n      tag_65\n      jumpi\n      mload(0x40)\n      0x08c379a000000000000000000000000000000000000000000000000000000000\n      dup2\n      mstore\n      0x04\n      add\n      tag_66\n      swap1\n      tag_67\n      jump\t// in\n    tag_66:\n      mload(0x40)\n      dup1\n      swap2\n      sub\n      swap1\n      revert\n    tag_65:\n        /* \"contracts/SmartContractWallet.sol\":963:974  _isGuardian */\n      dup1\n        /* \"contracts/SmartContractWallet.sol\":940:949  guardians */\n      0x03\n        /* \"contracts/SmartContractWallet.sol\":940:960  guardians[_guardian] */\n      0x00\n        /* \"contracts/SmartContractWallet.sol\":950:959  _guardian */\n      dup5\n        /* \"contracts/SmartContractWallet.sol\":940:960  guardians[_guardian] */\n      0xffffffffffffffffffffffffffffffffffffffff\n      and\n      0xffffffffffffffffffffffffffffffffffffffff\n      and\n      dup2\n      mstore\n      0x20\n      add\n      swap1\n      dup2\n      mstore\n      0x20\n      add\n      0x00\n      keccak256\n      0x00\n        /* \"contracts/SmartContractWallet.sol\":940:974  guardians[_guardian] = _isGuardian */\n      0x0100\n      exp\n      dup2\n      sload\n      dup2\n      0xff\n      mul\n      not\n      and\n      swap1\n      dup4\n      iszero\n      iszero\n      mul\n      or\n      swap1\n      sstore\n      pop\n        /* \"contracts/SmartContractWallet.sol\":761:981  function setGuardian(address _guardian, bool _isGuardian) public {... */\n      pop\n      pop\n      jump\t// out\n        /* \"contracts/SmartContractWallet.sol\":1577:1920  function setAllowance ( address _for, uint _amount) public {... */\n    tag_36:\n        /* \"contracts/SmartContractWallet.sol\":1668:1673  owner */\n      0x00\n      dup1\n      sload\n      swap1\n      0x0100\n      exp\n      swap1\n      div\n      0xffffffffffffffffffffffffffffffffffffffff\n      and\n        /* \"contracts/SmartContractWallet.sol\":1654:1673  msg.sender == owner */\n      0xffffffffffffffffffffffffffffffffffffffff\n      and\n        /* \"contracts/SmartContractWallet.sol\":1654:1664  msg.sender */\n      caller\n        /* \"contracts/SmartContractWallet.sol\":1654:1673  msg.sender == owner */\n      0xffffffffffffffffffffffffffffffffffffffff\n      and\n      eq\n        /* \"contracts/SmartContractWallet.sol\":1646:1739  require(msg.sender == owner, \"You are not the owner. You cannot set allowance, aborting...!\") */\n      tag_69\n      jumpi\n      mload(0x40)\n      0x08c379a000000000000000000000000000000000000000000000000000000000\n      dup2\n      mstore\n      0x04\n      add\n      tag_70\n      swap1\n      tag_71\n      jump\t// in\n    tag_70:\n      mload(0x40)\n      dup1\n      swap2\n      sub\n      swap1\n      revert\n    tag_69:\n        /* \"contracts/SmartContractWallet.sol\":1767:1774  _amount */\n      dup1\n        /* \"contracts/SmartContractWallet.sol\":1749:1758  allowance */\n      0x01\n        /* \"contracts/SmartContractWallet.sol\":1749:1764  allowance[_for] */\n      0x00\n        /* \"contracts/SmartContractWallet.sol\":1759:1763  _for */\n      dup5\n        /* \"contracts/SmartContractWallet.sol\":1749:1764  allowance[_for] */\n      0xffffffffffffffffffffffffffffffffffffffff\n      and\n      0xffffffffffffffffffffffffffffffffffffffff\n      and\n      dup2\n      mstore\n      0x20\n      add\n      swap1\n      dup2\n      mstore\n      0x20\n      add\n      0x00\n      keccak256\n        /* \"contracts/SmartContractWallet.sol\":1749:1774  allowance[_for] = _amount */\n      dup2\n      swap1\n      sstore\n      pop\n        /* \"contracts/SmartContractWallet.sol\":1798:1799  0 */\n      0x00\n        /* \"contracts/SmartContractWallet.sol\":1788:1795  _amount */\n      dup2\n        /* \"contracts/SmartContractWallet.sol\":1788:1799  _amount > 0 */\n      gt\n        /* \"contracts/SmartContractWallet.sol\":1785:1914  if(_amount > 0) {... */\n      iszero\n      tag_72\n      jumpi\n        /* \"contracts/SmartContractWallet.sol\":1839:1843  true */\n      0x01\n        /* \"contracts/SmartContractWallet.sol\":1815:1830  isAllowedToSend */\n      0x02\n        /* \"contracts/SmartContractWallet.sol\":1815:1836  isAllowedToSend[_for] */\n      0x00\n        /* \"contracts/SmartContractWallet.sol\":1831:1835  _for */\n      dup5\n        /* \"contracts/SmartContractWallet.sol\":1815:1836  isAllowedToSend[_for] */\n      0xffffffffffffffffffffffffffffffffffffffff\n      and\n      0xffffffffffffffffffffffffffffffffffffffff\n      and\n      dup2\n      mstore\n      0x20\n      add\n      swap1\n      dup2\n      mstore\n      0x20\n      add\n      0x00\n      keccak256\n      0x00\n        /* \"contracts/SmartContractWallet.sol\":1815:1843  isAllowedToSend[_for] = true */\n      0x0100\n      exp\n      dup2\n      sload\n      dup2\n      0xff\n      mul\n      not\n      and\n      swap1\n      dup4\n      iszero\n      iszero\n      mul\n      or\n      swap1\n      sstore\n      pop\n        /* \"contracts/SmartContractWallet.sol\":1785:1914  if(_amount > 0) {... */\n      jump(tag_73)\n    tag_72:\n        /* \"contracts/SmartContractWallet.sol\":1898:1903  false */\n      0x00\n        /* \"contracts/SmartContractWallet.sol\":1874:1889  isAllowedToSend */\n      0x02\n        /* \"contracts/SmartContractWallet.sol\":1874:1895  isAllowedToSend[_for] */\n      0x00\n        /* \"contracts/SmartContractWallet.sol\":1890:1894  _for */\n      dup5\n        /* \"contracts/SmartContractWallet.sol\":1874:1895  isAllowedToSend[_for] */\n      0xffffffffffffffffffffffffffffffffffffffff\n      and\n      0xffffffffffffffffffffffffffffffffffffffff\n      and\n      dup2\n      mstore\n      0x20\n      add\n      swap1\n      dup2\n      mstore\n      0x20\n      add\n      0x00\n      keccak256\n      0x00\n        /* \"contracts/SmartContractWallet.sol\":1874:1903  isAllowedToSend[_for] = false */\n      0x0100\n      exp\n      dup2\n      sload\n      dup2\n      0xff\n      mul\n      not\n      and\n      swap1\n      dup4\n      iszero\n      iszero\n      mul\n      or\n      swap1\n      sstore\n      pop\n        /* \"contracts/SmartContractWallet.sol\":1785:1914  if(_amount > 0) {... */\n    tag_73:\n        /* \"contracts/SmartContractWallet.sol\":1577:1920  function setAllowance ( address _for, uint _amount) public {... */\n      pop\n      pop\n      jump\t// out\n        /* \"contracts/SmartContractWallet.sol\":340:381  mapping(address => uint) public allowance */\n    tag_40:\n      mstore(0x20, 0x01)\n      dup1\n      0x00\n      mstore\n      keccak256(0x00, 0x40)\n      0x00\n      swap2\n      pop\n      swap1\n      pop\n      sload\n      dup2\n      jump\t// out\n        /* \"contracts/SmartContractWallet.sol\":630:689  uint public constant confirmationsFromGuardiansForReset = 3 */\n    tag_45:\n        /* \"contracts/SmartContractWallet.sol\":688:689  3 */\n      0x03\n        /* \"contracts/SmartContractWallet.sol\":630:689  uint public constant confirmationsFromGuardiansForReset = 3 */\n      dup2\n      jump\t// out\n        /* \"contracts/SmartContractWallet.sol\":1927:2668  function Transfer(address payable _to, uint _amount, bytes memory _payload) public returns(bytes memory){... */\n    tag_51:\n        /* \"contracts/SmartContractWallet.sol\":2018:2030  bytes memory */\n      0x60\n        /* \"contracts/SmartContractWallet.sol\":2157:2162  owner */\n      0x00\n      dup1\n      sload\n      swap1\n      0x0100\n      exp\n      swap1\n      div\n      0xffffffffffffffffffffffffffffffffffffffff\n      and\n        /* \"contracts/SmartContractWallet.sol\":2143:2162  msg.sender != owner */\n      0xffffffffffffffffffffffffffffffffffffffff\n      and\n        /* \"contracts/SmartContractWallet.sol\":2143:2153  msg.sender */\n      caller\n        /* \"contracts/SmartContractWallet.sol\":2143:2162  msg.sender != owner */\n      0xffffffffffffffffffffffffffffffffffffffff\n      and\n      eq\n        /* \"contracts/SmartContractWallet.sol\":2140:2467  if(msg.sender != owner) {... */\n      tag_75\n      jumpi\n        /* \"contracts/SmartContractWallet.sol\":2186:2201  isAllowedToSend */\n      0x02\n        /* \"contracts/SmartContractWallet.sol\":2186:2213  isAllowedToSend[msg.sender] */\n      0x00\n        /* \"contracts/SmartContractWallet.sol\":2202:2212  msg.sender */\n      caller\n        /* \"contracts/SmartContractWallet.sol\":2186:2213  isAllowedToSend[msg.sender] */\n      0xffffffffffffffffffffffffffffffffffffffff\n      and\n      0xffffffffffffffffffffffffffffffffffffffff\n      and\n      dup2\n      mstore\n      0x20\n      add\n      swap1\n      dup2\n      mstore\n      0x20\n      add\n      0x00\n      keccak256\n      0x00\n      swap1\n      sload\n      swap1\n      0x0100\n      exp\n      swap1\n      div\n      0xff\n      and\n        /* \"contracts/SmartContractWallet.sol\":2178:2286  require(isAllowedToSend[msg.sender],\"You are not allowed to send anything from this contract, aborting...!\") */\n      tag_76\n      jumpi\n      mload(0x40)\n      0x08c379a000000000000000000000000000000000000000000000000000000000\n      dup2\n      mstore\n      0x04\n      add\n      tag_77\n      swap1\n      tag_78\n      jump\t// in\n    tag_77:\n      mload(0x40)\n      dup1\n      swap2\n      sub\n      swap1\n      revert\n    tag_76:\n        /* \"contracts/SmartContractWallet.sol\":2333:2340  _amount */\n      dup3\n        /* \"contracts/SmartContractWallet.sol\":2308:2317  allowance */\n      0x01\n        /* \"contracts/SmartContractWallet.sol\":2308:2329  allowance[msg.sender] */\n      0x00\n        /* \"contracts/SmartContractWallet.sol\":2318:2328  msg.sender */\n      caller\n        /* \"contracts/SmartContractWallet.sol\":2308:2329  allowance[msg.sender] */\n      0xffffffffffffffffffffffffffffffffffffffff\n      and\n      0xffffffffffffffffffffffffffffffffffffffff\n      and\n      dup2\n      mstore\n      0x20\n      add\n      swap1\n      dup2\n      mstore\n      0x20\n      add\n      0x00\n      keccak256\n      sload\n        /* \"contracts/SmartContractWallet.sol\":2308:2340  allowance[msg.sender] >= _amount */\n      lt\n      iszero\n        /* \"contracts/SmartContractWallet.sol\":2300:2410  require(allowance[msg.sender] >= _amount, \"You are trying to send more than you are allowed to, aborting...!\") */\n      tag_79\n      jumpi\n      mload(0x40)\n      0x08c379a000000000000000000000000000000000000000000000000000000000\n      dup2\n      mstore\n      0x04\n      add\n      tag_80\n      swap1\n      tag_81\n      jump\t// in\n    tag_80:\n      mload(0x40)\n      dup1\n      swap2\n      sub\n      swap1\n      revert\n    tag_79:\n        /* \"contracts/SmartContractWallet.sol\":2449:2456  _amount */\n      dup3\n        /* \"contracts/SmartContractWallet.sol\":2425:2434  allowance */\n      0x01\n        /* \"contracts/SmartContractWallet.sol\":2425:2446  allowance[msg.sender] */\n      0x00\n        /* \"contracts/SmartContractWallet.sol\":2435:2445  msg.sender */\n      caller\n        /* \"contracts/SmartContractWallet.sol\":2425:2446  allowance[msg.sender] */\n      0xffffffffffffffffffffffffffffffffffffffff\n      and\n      0xffffffffffffffffffffffffffffffffffffffff\n      and\n      dup2\n      mstore\n      0x20\n      add\n      swap1\n      dup2\n      mstore\n      0x20\n      add\n      0x00\n      keccak256\n      0x00\n        /* \"contracts/SmartContractWallet.sol\":2425:2456  allowance[msg.sender]-= _amount */\n      dup3\n      dup3\n      sload\n      tag_82\n      swap2\n      swap1\n      tag_83\n      jump\t// in\n    tag_82:\n      swap3\n      pop\n      pop\n      dup2\n      swap1\n      sstore\n      pop\n        /* \"contracts/SmartContractWallet.sol\":2140:2467  if(msg.sender != owner) {... */\n    tag_75:\n        /* \"contracts/SmartContractWallet.sol\":2478:2490  bool success */\n      0x00\n        /* \"contracts/SmartContractWallet.sol\":2492:2519  bytes memory transferedData */\n      dup1\n        /* \"contracts/SmartContractWallet.sol\":2522:2525  _to */\n      dup6\n        /* \"contracts/SmartContractWallet.sol\":2522:2530  _to.call */\n      0xffffffffffffffffffffffffffffffffffffffff\n      and\n        /* \"contracts/SmartContractWallet.sol\":2538:2545  _amount */\n      dup6\n        /* \"contracts/SmartContractWallet.sol\":2547:2555  _payload */\n      dup6\n        /* \"contracts/SmartContractWallet.sol\":2522:2556  _to.call {value:_amount}(_payload) */\n      mload(0x40)\n      tag_84\n      swap2\n      swap1\n      tag_85\n      jump\t// in\n    tag_84:\n      0x00\n      mload(0x40)\n      dup1\n      dup4\n      sub\n      dup2\n      dup6\n      dup8\n      gas\n      call\n      swap3\n      pop\n      pop\n      pop\n      returndatasize\n      dup1\n      0x00\n      dup2\n      eq\n      tag_88\n      jumpi\n      mload(0x40)\n      swap2\n      pop\n      and(add(returndatasize, 0x3f), not(0x1f))\n      dup3\n      add\n      0x40\n      mstore\n      returndatasize\n      dup3\n      mstore\n      returndatasize\n      0x00\n      0x20\n      dup5\n      add\n      returndatacopy\n      jump(tag_87)\n    tag_88:\n      0x60\n      swap2\n      pop\n    tag_87:\n      pop\n        /* \"contracts/SmartContractWallet.sol\":2477:2556  (bool success, bytes memory transferedData) =_to.call {value:_amount}(_payload) */\n      swap2\n      pop\n      swap2\n      pop\n        /* \"contracts/SmartContractWallet.sol\":2574:2581  success */\n      dup2\n        /* \"contracts/SmartContractWallet.sol\":2566:2630  require(success,\"Call function is not successful, aborting...!\") */\n      tag_89\n      jumpi\n      mload(0x40)\n      0x08c379a000000000000000000000000000000000000000000000000000000000\n      dup2\n      mstore\n      0x04\n      add\n      tag_90\n      swap1\n      tag_91\n      jump\t// in\n    tag_90:\n      mload(0x40)\n      dup1\n      swap2\n      sub\n      swap1\n      revert\n    tag_89:\n        /* \"contracts/SmartContractWallet.sol\":2647:2661  transferedData */\n      dup1\n        /* \"contracts/SmartContractWallet.sol\":2640:2661  return transferedData */\n      swap3\n      pop\n      pop\n      pop\n        /* \"contracts/SmartContractWallet.sol\":1927:2668  function Transfer(address payable _to, uint _amount, bytes memory _payload) public returns(bytes memory){... */\n      swap4\n      swap3\n      pop\n      pop\n      pop\n      jump\t// out\n        /* \"contracts/SmartContractWallet.sol\":305:333  address payable public owner */\n    tag_56:\n      0x00\n      dup1\n      sload\n      swap1\n      0x0100\n      exp\n      swap1\n      div\n      0xffffffffffffffffffffffffffffffffffffffff\n      and\n      dup2\n      jump\t// out\n        /* \"contracts/SmartContractWallet.sol\":987:1571  function proposeNewOwner(address payable _newOwner) public {... */\n    tag_63:\n        /* \"contracts/SmartContractWallet.sol\":1064:1073  guardians */\n      0x03\n        /* \"contracts/SmartContractWallet.sol\":1064:1085  guardians[msg.sender] */\n      0x00\n        /* \"contracts/SmartContractWallet.sol\":1074:1084  msg.sender */\n      caller\n        /* \"contracts/SmartContractWallet.sol\":1064:1085  guardians[msg.sender] */\n      0xffffffffffffffffffffffffffffffffffffffff\n      and\n      0xffffffffffffffffffffffffffffffffffffffff\n      and\n      dup2\n      mstore\n      0x20\n      add\n      swap1\n      dup2\n      mstore\n      0x20\n      add\n      0x00\n      keccak256\n      0x00\n      swap1\n      sload\n      swap1\n      0x0100\n      exp\n      swap1\n      div\n      0xff\n      and\n        /* \"contracts/SmartContractWallet.sol\":1056:1142  require(guardians[msg.sender],\"You are not the guardian of this wallet, aborting...!\") */\n      tag_93\n      jumpi\n      mload(0x40)\n      0x08c379a000000000000000000000000000000000000000000000000000000000\n      dup2\n      mstore\n      0x04\n      add\n      tag_94\n      swap1\n      tag_95\n      jump\t// in\n    tag_94:\n      mload(0x40)\n      dup1\n      swap2\n      sub\n      swap1\n      revert\n    tag_93:\n        /* \"contracts/SmartContractWallet.sol\":1212:1217  false */\n      0x00\n        /* \"contracts/SmartContractWallet.sol\":1160:1217  nextOwnerGuardianVoteBool[_newOwner][msg.sender] == false */\n      iszero\n      iszero\n        /* \"contracts/SmartContractWallet.sol\":1160:1185  nextOwnerGuardianVoteBool */\n      0x05\n        /* \"contracts/SmartContractWallet.sol\":1160:1196  nextOwnerGuardianVoteBool[_newOwner] */\n      0x00\n        /* \"contracts/SmartContractWallet.sol\":1186:1195  _newOwner */\n      dup4\n        /* \"contracts/SmartContractWallet.sol\":1160:1196  nextOwnerGuardianVoteBool[_newOwner] */\n      0xffffffffffffffffffffffffffffffffffffffff\n      and\n      0xffffffffffffffffffffffffffffffffffffffff\n      and\n      dup2\n      mstore\n      0x20\n      add\n      swap1\n      dup2\n      mstore\n      0x20\n      add\n      0x00\n      keccak256\n        /* \"contracts/SmartContractWallet.sol\":1160:1208  nextOwnerGuardianVoteBool[_newOwner][msg.sender] */\n      0x00\n        /* \"contracts/SmartContractWallet.sol\":1197:1207  msg.sender */\n      caller\n        /* \"contracts/SmartContractWallet.sol\":1160:1208  nextOwnerGuardianVoteBool[_newOwner][msg.sender] */\n      0xffffffffffffffffffffffffffffffffffffffff\n      and\n      0xffffffffffffffffffffffffffffffffffffffff\n      and\n      dup2\n      mstore\n      0x20\n      add\n      swap1\n      dup2\n      mstore\n      0x20\n      add\n      0x00\n      keccak256\n      0x00\n      swap1\n      sload\n      swap1\n      0x0100\n      exp\n      swap1\n      div\n      0xff\n      and\n        /* \"contracts/SmartContractWallet.sol\":1160:1217  nextOwnerGuardianVoteBool[_newOwner][msg.sender] == false */\n      iszero\n      iszero\n      eq\n        /* \"contracts/SmartContractWallet.sol\":1152:1253  require(nextOwnerGuardianVoteBool[_newOwner][msg.sender] == false, \"You alreadt voted, aborting...!\") */\n      tag_96\n      jumpi\n      mload(0x40)\n      0x08c379a000000000000000000000000000000000000000000000000000000000\n      dup2\n      mstore\n      0x04\n      add\n      tag_97\n      swap1\n      tag_98\n      jump\t// in\n    tag_97:\n      mload(0x40)\n      dup1\n      swap2\n      sub\n      swap1\n      revert\n    tag_96:\n        /* \"contracts/SmartContractWallet.sol\":1279:1288  nextOwner */\n      0x04\n      0x00\n      swap1\n      sload\n      swap1\n      0x0100\n      exp\n      swap1\n      div\n      0xffffffffffffffffffffffffffffffffffffffff\n      and\n        /* \"contracts/SmartContractWallet.sol\":1266:1288  _newOwner != nextOwner */\n      0xffffffffffffffffffffffffffffffffffffffff\n      and\n        /* \"contracts/SmartContractWallet.sol\":1266:1275  _newOwner */\n      dup2\n        /* \"contracts/SmartContractWallet.sol\":1266:1288  _newOwner != nextOwner */\n      0xffffffffffffffffffffffffffffffffffffffff\n      and\n      eq\n        /* \"contracts/SmartContractWallet.sol\":1263:1373  if(_newOwner != nextOwner) {... */\n      tag_99\n      jumpi\n        /* \"contracts/SmartContractWallet.sol\":1316:1325  _newOwner */\n      dup1\n        /* \"contracts/SmartContractWallet.sol\":1304:1313  nextOwner */\n      0x04\n      0x00\n        /* \"contracts/SmartContractWallet.sol\":1304:1325  nextOwner = _newOwner */\n      0x0100\n      exp\n      dup2\n      sload\n      dup2\n      0xffffffffffffffffffffffffffffffffffffffff\n      mul\n      not\n      and\n      swap1\n      dup4\n      0xffffffffffffffffffffffffffffffffffffffff\n      and\n      mul\n      or\n      swap1\n      sstore\n      pop\n        /* \"contracts/SmartContractWallet.sol\":1361:1362  0 */\n      0x00\n        /* \"contracts/SmartContractWallet.sol\":1339:1358  guardiansResetCount */\n      0x06\n        /* \"contracts/SmartContractWallet.sol\":1339:1362  guardiansResetCount = 0 */\n      dup2\n      swap1\n      sstore\n      pop\n        /* \"contracts/SmartContractWallet.sol\":1263:1373  if(_newOwner != nextOwner) {... */\n    tag_99:\n        /* \"contracts/SmartContractWallet.sol\":1383:1402  guardiansResetCount */\n      0x06\n      0x00\n        /* \"contracts/SmartContractWallet.sol\":1383:1404  guardiansResetCount++ */\n      dup2\n      sload\n      dup1\n      swap3\n      swap2\n      swap1\n      tag_100\n      swap1\n      tag_101\n      jump\t// in\n    tag_100:\n      swap2\n      swap1\n      pop\n      sstore\n      pop\n        /* \"contracts/SmartContractWallet.sol\":688:689  3 */\n      0x03\n        /* \"contracts/SmartContractWallet.sol\":1419:1438  guardiansResetCount */\n      sload(0x06)\n        /* \"contracts/SmartContractWallet.sol\":1419:1476  guardiansResetCount >= confirmationsFromGuardiansForReset */\n      lt\n        /* \"contracts/SmartContractWallet.sol\":1415:1565  if (guardiansResetCount >= confirmationsFromGuardiansForReset) {... */\n      tag_102\n      jumpi\n        /* \"contracts/SmartContractWallet.sol\":1500:1509  nextOwner */\n      0x04\n      0x00\n      swap1\n      sload\n      swap1\n      0x0100\n      exp\n      swap1\n      div\n      0xffffffffffffffffffffffffffffffffffffffff\n      and\n        /* \"contracts/SmartContractWallet.sol\":1492:1497  owner */\n      0x00\n      dup1\n        /* \"contracts/SmartContractWallet.sol\":1492:1509  owner = nextOwner */\n      0x0100\n      exp\n      dup2\n      sload\n      dup2\n      0xffffffffffffffffffffffffffffffffffffffff\n      mul\n      not\n      and\n      swap1\n      dup4\n      0xffffffffffffffffffffffffffffffffffffffff\n      and\n      mul\n      or\n      swap1\n      sstore\n      pop\n        /* \"contracts/SmartContractWallet.sol\":1551:1552  0 */\n      0x00\n        /* \"contracts/SmartContractWallet.sol\":1523:1532  nextOwner */\n      0x04\n      0x00\n        /* \"contracts/SmartContractWallet.sol\":1523:1554  nextOwner = payable(address(0)) */\n      0x0100\n      exp\n      dup2\n      sload\n      dup2\n      0xffffffffffffffffffffffffffffffffffffffff\n      mul\n      not\n      and\n      swap1\n      dup4\n      0xffffffffffffffffffffffffffffffffffffffff\n      and\n      mul\n      or\n      swap1\n      sstore\n      pop\n        /* \"contracts/SmartContractWallet.sol\":1415:1565  if (guardiansResetCount >= confirmationsFromGuardiansForReset) {... */\n    tag_102:\n        /* \"contracts/SmartContractWallet.sol\":987:1571  function proposeNewOwner(address payable _newOwner) public {... */\n      pop\n      jump\t// out\n        /* \"#utility.yul\":7:82   */\n    tag_103:\n        /* \"#utility.yul\":40:46   */\n      0x00\n        /* \"#utility.yul\":73:75   */\n      0x40\n        /* \"#utility.yul\":67:76   */\n      mload\n        /* \"#utility.yul\":57:76   */\n      swap1\n      pop\n        /* \"#utility.yul\":7:82   */\n      swap1\n      jump\t// out\n        /* \"#utility.yul\":88:205   */\n    tag_104:\n        /* \"#utility.yul\":197:198   */\n      0x00\n        /* \"#utility.yul\":194:195   */\n      dup1\n        /* \"#utility.yul\":187:199   */\n      revert\n        /* \"#utility.yul\":211:328   */\n    tag_105:\n        /* \"#utility.yul\":320:321   */\n      0x00\n        /* \"#utility.yul\":317:318   */\n      dup1\n        /* \"#utility.yul\":310:322   */\n      revert\n        /* \"#utility.yul\":334:460   */\n    tag_106:\n        /* \"#utility.yul\":371:378   */\n      0x00\n        /* \"#utility.yul\":411:453   */\n      0xffffffffffffffffffffffffffffffffffffffff\n        /* \"#utility.yul\":404:409   */\n      dup3\n        /* \"#utility.yul\":400:454   */\n      and\n        /* \"#utility.yul\":389:454   */\n      swap1\n      pop\n        /* \"#utility.yul\":334:460   */\n      swap2\n      swap1\n      pop\n      jump\t// out\n        /* \"#utility.yul\":466:562   */\n    tag_107:\n        /* \"#utility.yul\":503:510   */\n      0x00\n        /* \"#utility.yul\":532:556   */\n      tag_160\n        /* \"#utility.yul\":550:555   */\n      dup3\n        /* \"#utility.yul\":532:556   */\n      tag_106\n      jump\t// in\n    tag_160:\n        /* \"#utility.yul\":521:556   */\n      swap1\n      pop\n        /* \"#utility.yul\":466:562   */\n      swap2\n      swap1\n      pop\n      jump\t// out\n        /* \"#utility.yul\":568:690   */\n    tag_108:\n        /* \"#utility.yul\":641:665   */\n      tag_162\n        /* \"#utility.yul\":659:664   */\n      dup2\n        /* \"#utility.yul\":641:665   */\n      tag_107\n      jump\t// in\n    tag_162:\n        /* \"#utility.yul\":634:639   */\n      dup2\n        /* \"#utility.yul\":631:666   */\n      eq\n        /* \"#utility.yul\":621:684   */\n      tag_163\n      jumpi\n        /* \"#utility.yul\":680:681   */\n      0x00\n        /* \"#utility.yul\":677:678   */\n      dup1\n        /* \"#utility.yul\":670:682   */\n      revert\n        /* \"#utility.yul\":621:684   */\n    tag_163:\n        /* \"#utility.yul\":568:690   */\n      pop\n      jump\t// out\n        /* \"#utility.yul\":696:835   */\n    tag_109:\n        /* \"#utility.yul\":742:747   */\n      0x00\n        /* \"#utility.yul\":780:786   */\n      dup2\n        /* \"#utility.yul\":767:787   */\n      calldataload\n        /* \"#utility.yul\":758:787   */\n      swap1\n      pop\n        /* \"#utility.yul\":796:829   */\n      tag_165\n        /* \"#utility.yul\":823:828   */\n      dup2\n        /* \"#utility.yul\":796:829   */\n      tag_108\n      jump\t// in\n    tag_165:\n        /* \"#utility.yul\":696:835   */\n      swap3\n      swap2\n      pop\n      pop\n      jump\t// out\n        /* \"#utility.yul\":841:1170   */\n    tag_18:\n        /* \"#utility.yul\":900:906   */\n      0x00\n        /* \"#utility.yul\":949:951   */\n      0x20\n        /* \"#utility.yul\":937:946   */\n      dup3\n        /* \"#utility.yul\":928:935   */\n      dup5\n        /* \"#utility.yul\":924:947   */\n      sub\n        /* \"#utility.yul\":920:952   */\n      slt\n        /* \"#utility.yul\":917:1036   */\n      iszero\n      tag_167\n      jumpi\n        /* \"#utility.yul\":955:1034   */\n      tag_168\n      tag_104\n      jump\t// in\n    tag_168:\n        /* \"#utility.yul\":917:1036   */\n    tag_167:\n        /* \"#utility.yul\":1075:1076   */\n      0x00\n        /* \"#utility.yul\":1100:1153   */\n      tag_169\n        /* \"#utility.yul\":1145:1152   */\n      dup5\n        /* \"#utility.yul\":1136:1142   */\n      dup3\n        /* \"#utility.yul\":1125:1134   */\n      dup6\n        /* \"#utility.yul\":1121:1143   */\n      add\n        /* \"#utility.yul\":1100:1153   */\n      tag_109\n      jump\t// in\n    tag_169:\n        /* \"#utility.yul\":1090:1153   */\n      swap2\n      pop\n        /* \"#utility.yul\":1046:1163   */\n      pop\n        /* \"#utility.yul\":841:1170   */\n      swap3\n      swap2\n      pop\n      pop\n      jump\t// out\n        /* \"#utility.yul\":1176:1266   */\n    tag_110:\n        /* \"#utility.yul\":1210:1217   */\n      0x00\n        /* \"#utility.yul\":1253:1258   */\n      dup2\n        /* \"#utility.yul\":1246:1259   */\n      iszero\n        /* \"#utility.yul\":1239:1260   */\n      iszero\n        /* \"#utility.yul\":1228:1260   */\n      swap1\n      pop\n        /* \"#utility.yul\":1176:1266   */\n      swap2\n      swap1\n      pop\n      jump\t// out\n        /* \"#utility.yul\":1272:1381   */\n    tag_111:\n        /* \"#utility.yul\":1353:1374   */\n      tag_172\n        /* \"#utility.yul\":1368:1373   */\n      dup2\n        /* \"#utility.yul\":1353:1374   */\n      tag_110\n      jump\t// in\n    tag_172:\n        /* \"#utility.yul\":1348:1351   */\n      dup3\n        /* \"#utility.yul\":1341:1375   */\n      mstore\n        /* \"#utility.yul\":1272:1381   */\n      pop\n      pop\n      jump\t// out\n        /* \"#utility.yul\":1387:1597   */\n    tag_21:\n        /* \"#utility.yul\":1474:1478   */\n      0x00\n        /* \"#utility.yul\":1512:1514   */\n      0x20\n        /* \"#utility.yul\":1501:1510   */\n      dup3\n        /* \"#utility.yul\":1497:1515   */\n      add\n        /* \"#utility.yul\":1489:1515   */\n      swap1\n      pop\n        /* \"#utility.yul\":1525:1590   */\n      tag_174\n        /* \"#utility.yul\":1587:1588   */\n      0x00\n        /* \"#utility.yul\":1576:1585   */\n      dup4\n        /* \"#utility.yul\":1572:1589   */\n      add\n        /* \"#utility.yul\":1563:1569   */\n      dup5\n        /* \"#utility.yul\":1525:1590   */\n      tag_111\n      jump\t// in\n    tag_174:\n        /* \"#utility.yul\":1387:1597   */\n      swap3\n      swap2\n      pop\n      pop\n      jump\t// out\n        /* \"#utility.yul\":1603:1719   */\n    tag_112:\n        /* \"#utility.yul\":1673:1694   */\n      tag_176\n        /* \"#utility.yul\":1688:1693   */\n      dup2\n        /* \"#utility.yul\":1673:1694   */\n      tag_110\n      jump\t// in\n    tag_176:\n        /* \"#utility.yul\":1666:1671   */\n      dup2\n        /* \"#utility.yul\":1663:1695   */\n      eq\n        /* \"#utility.yul\":1653:1713   */\n      tag_177\n      jumpi\n        /* \"#utility.yul\":1709:1710   */\n      0x00\n        /* \"#utility.yul\":1706:1707   */\n      dup1\n        /* \"#utility.yul\":1699:1711   */\n      revert\n        /* \"#utility.yul\":1653:1713   */\n    tag_177:\n        /* \"#utility.yul\":1603:1719   */\n      pop\n      jump\t// out\n        /* \"#utility.yul\":1725:1858   */\n    tag_113:\n        /* \"#utility.yul\":1768:1773   */\n      0x00\n        /* \"#utility.yul\":1806:1812   */\n      dup2\n        /* \"#utility.yul\":1793:1813   */\n      calldataload\n        /* \"#utility.yul\":1784:1813   */\n      swap1\n      pop\n        /* \"#utility.yul\":1822:1852   */\n      tag_179\n        /* \"#utility.yul\":1846:1851   */\n      dup2\n        /* \"#utility.yul\":1822:1852   */\n      tag_112\n      jump\t// in\n    tag_179:\n        /* \"#utility.yul\":1725:1858   */\n      swap3\n      swap2\n      pop\n      pop\n      jump\t// out\n        /* \"#utility.yul\":1864:2332   */\n    tag_30:\n        /* \"#utility.yul\":1929:1935   */\n      0x00\n        /* \"#utility.yul\":1937:1943   */\n      dup1\n        /* \"#utility.yul\":1986:1988   */\n      0x40\n        /* \"#utility.yul\":1974:1983   */\n      dup4\n        /* \"#utility.yul\":1965:1972   */\n      dup6\n        /* \"#utility.yul\":1961:1984   */\n      sub\n        /* \"#utility.yul\":1957:1989   */\n      slt\n        /* \"#utility.yul\":1954:2073   */\n      iszero\n      tag_181\n      jumpi\n        /* \"#utility.yul\":1992:2071   */\n      tag_182\n      tag_104\n      jump\t// in\n    tag_182:\n        /* \"#utility.yul\":1954:2073   */\n    tag_181:\n        /* \"#utility.yul\":2112:2113   */\n      0x00\n        /* \"#utility.yul\":2137:2190   */\n      tag_183\n        /* \"#utility.yul\":2182:2189   */\n      dup6\n        /* \"#utility.yul\":2173:2179   */\n      dup3\n        /* \"#utility.yul\":2162:2171   */\n      dup7\n        /* \"#utility.yul\":2158:2180   */\n      add\n        /* \"#utility.yul\":2137:2190   */\n      tag_109\n      jump\t// in\n    tag_183:\n        /* \"#utility.yul\":2127:2190   */\n      swap3\n      pop\n        /* \"#utility.yul\":2083:2200   */\n      pop\n        /* \"#utility.yul\":2239:2241   */\n      0x20\n        /* \"#utility.yul\":2265:2315   */\n      tag_184\n        /* \"#utility.yul\":2307:2314   */\n      dup6\n        /* \"#utility.yul\":2298:2304   */\n      dup3\n        /* \"#utility.yul\":2287:2296   */\n      dup7\n        /* \"#utility.yul\":2283:2305   */\n      add\n        /* \"#utility.yul\":2265:2315   */\n      tag_113\n      jump\t// in\n    tag_184:\n        /* \"#utility.yul\":2255:2315   */\n      swap2\n      pop\n        /* \"#utility.yul\":2210:2325   */\n      pop\n        /* \"#utility.yul\":1864:2332   */\n      swap3\n      pop\n      swap3\n      swap1\n      pop\n      jump\t// out\n        /* \"#utility.yul\":2338:2415   */\n    tag_114:\n        /* \"#utility.yul\":2375:2382   */\n      0x00\n        /* \"#utility.yul\":2404:2409   */\n      dup2\n        /* \"#utility.yul\":2393:2409   */\n      swap1\n      pop\n        /* \"#utility.yul\":2338:2415   */\n      swap2\n      swap1\n      pop\n      jump\t// out\n        /* \"#utility.yul\":2421:2543   */\n    tag_115:\n        /* \"#utility.yul\":2494:2518   */\n      tag_187\n        /* \"#utility.yul\":2512:2517   */\n      dup2\n        /* \"#utility.yul\":2494:2518   */\n      tag_114\n      jump\t// in\n    tag_187:\n        /* \"#utility.yul\":2487:2492   */\n      dup2\n        /* \"#utility.yul\":2484:2519   */\n      eq\n        /* \"#utility.yul\":2474:2537   */\n      tag_188\n      jumpi\n        /* \"#utility.yul\":2533:2534   */\n      0x00\n        /* \"#utility.yul\":2530:2531   */\n      dup1\n        /* \"#utility.yul\":2523:2535   */\n      revert\n        /* \"#utility.yul\":2474:2537   */\n    tag_188:\n        /* \"#utility.yul\":2421:2543   */\n      pop\n      jump\t// out\n        /* \"#utility.yul\":2549:2688   */\n    tag_116:\n        /* \"#utility.yul\":2595:2600   */\n      0x00\n        /* \"#utility.yul\":2633:2639   */\n      dup2\n        /* \"#utility.yul\":2620:2640   */\n      calldataload\n        /* \"#utility.yul\":2611:2640   */\n      swap1\n      pop\n        /* \"#utility.yul\":2649:2682   */\n      tag_190\n        /* \"#utility.yul\":2676:2681   */\n      dup2\n        /* \"#utility.yul\":2649:2682   */\n      tag_115\n      jump\t// in\n    tag_190:\n        /* \"#utility.yul\":2549:2688   */\n      swap3\n      swap2\n      pop\n      pop\n      jump\t// out\n        /* \"#utility.yul\":2694:3168   */\n    tag_35:\n        /* \"#utility.yul\":2762:2768   */\n      0x00\n        /* \"#utility.yul\":2770:2776   */\n      dup1\n        /* \"#utility.yul\":2819:2821   */\n      0x40\n        /* \"#utility.yul\":2807:2816   */\n      dup4\n        /* \"#utility.yul\":2798:2805   */\n      dup6\n        /* \"#utility.yul\":2794:2817   */\n      sub\n        /* \"#utility.yul\":2790:2822   */\n      slt\n        /* \"#utility.yul\":2787:2906   */\n      iszero\n      tag_192\n      jumpi\n        /* \"#utility.yul\":2825:2904   */\n      tag_193\n      tag_104\n      jump\t// in\n    tag_193:\n        /* \"#utility.yul\":2787:2906   */\n    tag_192:\n        /* \"#utility.yul\":2945:2946   */\n      0x00\n        /* \"#utility.yul\":2970:3023   */\n      tag_194\n        /* \"#utility.yul\":3015:3022   */\n      dup6\n        /* \"#utility.yul\":3006:3012   */\n      dup3\n        /* \"#utility.yul\":2995:3004   */\n      dup7\n        /* \"#utility.yul\":2991:3013   */\n      add\n        /* \"#utility.yul\":2970:3023   */\n      tag_109\n      jump\t// in\n    tag_194:\n        /* \"#utility.yul\":2960:3023   */\n      swap3\n      pop\n        /* \"#utility.yul\":2916:3033   */\n      pop\n        /* \"#utility.yul\":3072:3074   */\n      0x20\n        /* \"#utility.yul\":3098:3151   */\n      tag_195\n        /* \"#utility.yul\":3143:3150   */\n      dup6\n        /* \"#utility.yul\":3134:3140   */\n      dup3\n        /* \"#utility.yul\":3123:3132   */\n      dup7\n        /* \"#utility.yul\":3119:3141   */\n      add\n        /* \"#utility.yul\":3098:3151   */\n      tag_116\n      jump\t// in\n    tag_195:\n        /* \"#utility.yul\":3088:3151   */\n      swap2\n      pop\n        /* \"#utility.yul\":3043:3161   */\n      pop\n        /* \"#utility.yul\":2694:3168   */\n      swap3\n      pop\n      swap3\n      swap1\n      pop\n      jump\t// out\n        /* \"#utility.yul\":3174:3292   */\n    tag_117:\n        /* \"#utility.yul\":3261:3285   */\n      tag_197\n        /* \"#utility.yul\":3279:3284   */\n      dup2\n        /* \"#utility.yul\":3261:3285   */\n      tag_114\n      jump\t// in\n    tag_197:\n        /* \"#utility.yul\":3256:3259   */\n      dup3\n        /* \"#utility.yul\":3249:3286   */\n      mstore\n        /* \"#utility.yul\":3174:3292   */\n      pop\n      pop\n      jump\t// out\n        /* \"#utility.yul\":3298:3520   */\n    tag_42:\n        /* \"#utility.yul\":3391:3395   */\n      0x00\n        /* \"#utility.yul\":3429:3431   */\n      0x20\n        /* \"#utility.yul\":3418:3427   */\n      dup3\n        /* \"#utility.yul\":3414:3432   */\n      add\n        /* \"#utility.yul\":3406:3432   */\n      swap1\n      pop\n        /* \"#utility.yul\":3442:3513   */\n      tag_199\n        /* \"#utility.yul\":3510:3511   */\n      0x00\n        /* \"#utility.yul\":3499:3508   */\n      dup4\n        /* \"#utility.yul\":3495:3512   */\n      add\n        /* \"#utility.yul\":3486:3492   */\n      dup5\n        /* \"#utility.yul\":3442:3513   */\n      tag_117\n      jump\t// in\n    tag_199:\n        /* \"#utility.yul\":3298:3520   */\n      swap3\n      swap2\n      pop\n      pop\n      jump\t// out\n        /* \"#utility.yul\":3526:3630   */\n    tag_118:\n        /* \"#utility.yul\":3571:3578   */\n      0x00\n        /* \"#utility.yul\":3600:3624   */\n      tag_201\n        /* \"#utility.yul\":3618:3623   */\n      dup3\n        /* \"#utility.yul\":3600:3624   */\n      tag_106\n      jump\t// in\n    tag_201:\n        /* \"#utility.yul\":3589:3624   */\n      swap1\n      pop\n        /* \"#utility.yul\":3526:3630   */\n      swap2\n      swap1\n      pop\n      jump\t// out\n        /* \"#utility.yul\":3636:3774   */\n    tag_119:\n        /* \"#utility.yul\":3717:3749   */\n      tag_203\n        /* \"#utility.yul\":3743:3748   */\n      dup2\n        /* \"#utility.yul\":3717:3749   */\n      tag_118\n      jump\t// in\n    tag_203:\n        /* \"#utility.yul\":3710:3715   */\n      dup2\n        /* \"#utility.yul\":3707:3750   */\n      eq\n        /* \"#utility.yul\":3697:3768   */\n      tag_204\n      jumpi\n        /* \"#utility.yul\":3764:3765   */\n      0x00\n        /* \"#utility.yul\":3761:3762   */\n      dup1\n        /* \"#utility.yul\":3754:3766   */\n      revert\n        /* \"#utility.yul\":3697:3768   */\n    tag_204:\n        /* \"#utility.yul\":3636:3774   */\n      pop\n      jump\t// out\n        /* \"#utility.yul\":3780:3935   */\n    tag_120:\n        /* \"#utility.yul\":3834:3839   */\n      0x00\n        /* \"#utility.yul\":3872:3878   */\n      dup2\n        /* \"#utility.yul\":3859:3879   */\n      calldataload\n        /* \"#utility.yul\":3850:3879   */\n      swap1\n      pop\n        /* \"#utility.yul\":3888:3929   */\n      tag_206\n        /* \"#utility.yul\":3923:3928   */\n      dup2\n        /* \"#utility.yul\":3888:3929   */\n      tag_119\n      jump\t// in\n    tag_206:\n        /* \"#utility.yul\":3780:3935   */\n      swap3\n      swap2\n      pop\n      pop\n      jump\t// out\n        /* \"#utility.yul\":3941:4058   */\n    tag_121:\n        /* \"#utility.yul\":4050:4051   */\n      0x00\n        /* \"#utility.yul\":4047:4048   */\n      dup1\n        /* \"#utility.yul\":4040:4052   */\n      revert\n        /* \"#utility.yul\":4064:4181   */\n    tag_122:\n        /* \"#utility.yul\":4173:4174   */\n      0x00\n        /* \"#utility.yul\":4170:4171   */\n      dup1\n        /* \"#utility.yul\":4163:4175   */\n      revert\n        /* \"#utility.yul\":4187:4289   */\n    tag_123:\n        /* \"#utility.yul\":4228:4234   */\n      0x00\n        /* \"#utility.yul\":4279:4281   */\n      0x1f\n        /* \"#utility.yul\":4275:4282   */\n      not\n        /* \"#utility.yul\":4270:4272   */\n      0x1f\n        /* \"#utility.yul\":4263:4268   */\n      dup4\n        /* \"#utility.yul\":4259:4273   */\n      add\n        /* \"#utility.yul\":4255:4283   */\n      and\n        /* \"#utility.yul\":4245:4283   */\n      swap1\n      pop\n        /* \"#utility.yul\":4187:4289   */\n      swap2\n      swap1\n      pop\n      jump\t// out\n        /* \"#utility.yul\":4295:4475   */\n    tag_124:\n        /* \"#utility.yul\":4343:4420   */\n      0x4e487b7100000000000000000000000000000000000000000000000000000000\n        /* \"#utility.yul\":4340:4341   */\n      0x00\n        /* \"#utility.yul\":4333:4421   */\n      mstore\n        /* \"#utility.yul\":4440:4444   */\n      0x41\n        /* \"#utility.yul\":4437:4438   */\n      0x04\n        /* \"#utility.yul\":4430:4445   */\n      mstore\n        /* \"#utility.yul\":4464:4468   */\n      0x24\n        /* \"#utility.yul\":4461:4462   */\n      0x00\n        /* \"#utility.yul\":4454:4469   */\n      revert\n        /* \"#utility.yul\":4481:4762   */\n    tag_125:\n        /* \"#utility.yul\":4564:4591   */\n      tag_212\n        /* \"#utility.yul\":4586:4590   */\n      dup3\n        /* \"#utility.yul\":4564:4591   */\n      tag_123\n      jump\t// in\n    tag_212:\n        /* \"#utility.yul\":4556:4562   */\n      dup2\n        /* \"#utility.yul\":4552:4592   */\n      add\n        /* \"#utility.yul\":4694:4700   */\n      dup2\n        /* \"#utility.yul\":4682:4692   */\n      dup2\n        /* \"#utility.yul\":4679:4701   */\n      lt\n        /* \"#utility.yul\":4658:4676   */\n      0xffffffffffffffff\n        /* \"#utility.yul\":4646:4656   */\n      dup3\n        /* \"#utility.yul\":4643:4677   */\n      gt\n        /* \"#utility.yul\":4640:4702   */\n      or\n        /* \"#utility.yul\":4637:4725   */\n      iszero\n      tag_213\n      jumpi\n        /* \"#utility.yul\":4705:4723   */\n      tag_214\n      tag_124\n      jump\t// in\n    tag_214:\n        /* \"#utility.yul\":4637:4725   */\n    tag_213:\n        /* \"#utility.yul\":4745:4755   */\n      dup1\n        /* \"#utility.yul\":4741:4743   */\n      0x40\n        /* \"#utility.yul\":4734:4756   */\n      mstore\n        /* \"#utility.yul\":4524:4762   */\n      pop\n        /* \"#utility.yul\":4481:4762   */\n      pop\n      pop\n      jump\t// out\n        /* \"#utility.yul\":4768:4897   */\n    tag_126:\n        /* \"#utility.yul\":4802:4808   */\n      0x00\n        /* \"#utility.yul\":4829:4849   */\n      tag_216\n      tag_103\n      jump\t// in\n    tag_216:\n        /* \"#utility.yul\":4819:4849   */\n      swap1\n      pop\n        /* \"#utility.yul\":4858:4891   */\n      tag_217\n        /* \"#utility.yul\":4886:4890   */\n      dup3\n        /* \"#utility.yul\":4878:4884   */\n      dup3\n        /* \"#utility.yul\":4858:4891   */\n      tag_125\n      jump\t// in\n    tag_217:\n        /* \"#utility.yul\":4768:4897   */\n      swap2\n      swap1\n      pop\n      jump\t// out\n        /* \"#utility.yul\":4903:5210   */\n    tag_127:\n        /* \"#utility.yul\":4964:4968   */\n      0x00\n        /* \"#utility.yul\":5054:5072   */\n      0xffffffffffffffff\n        /* \"#utility.yul\":5046:5052   */\n      dup3\n        /* \"#utility.yul\":5043:5073   */\n      gt\n        /* \"#utility.yul\":5040:5096   */\n      iszero\n      tag_219\n      jumpi\n        /* \"#utility.yul\":5076:5094   */\n      tag_220\n      tag_124\n      jump\t// in\n    tag_220:\n        /* \"#utility.yul\":5040:5096   */\n    tag_219:\n        /* \"#utility.yul\":5114:5143   */\n      tag_221\n        /* \"#utility.yul\":5136:5142   */\n      dup3\n        /* \"#utility.yul\":5114:5143   */\n      tag_123\n      jump\t// in\n    tag_221:\n        /* \"#utility.yul\":5106:5143   */\n      swap1\n      pop\n        /* \"#utility.yul\":5198:5202   */\n      0x20\n        /* \"#utility.yul\":5192:5196   */\n      dup2\n        /* \"#utility.yul\":5188:5203   */\n      add\n        /* \"#utility.yul\":5180:5203   */\n      swap1\n      pop\n        /* \"#utility.yul\":4903:5210   */\n      swap2\n      swap1\n      pop\n      jump\t// out\n        /* \"#utility.yul\":5216:5362   */\n    tag_128:\n        /* \"#utility.yul\":5313:5319   */\n      dup3\n        /* \"#utility.yul\":5308:5311   */\n      dup2\n        /* \"#utility.yul\":5303:5306   */\n      dup4\n        /* \"#utility.yul\":5290:5320   */\n      calldatacopy\n        /* \"#utility.yul\":5354:5355   */\n      0x00\n        /* \"#utility.yul\":5345:5351   */\n      dup4\n        /* \"#utility.yul\":5340:5343   */\n      dup4\n        /* \"#utility.yul\":5336:5352   */\n      add\n        /* \"#utility.yul\":5329:5356   */\n      mstore\n        /* \"#utility.yul\":5216:5362   */\n      pop\n      pop\n      pop\n      jump\t// out\n        /* \"#utility.yul\":5368:5791   */\n    tag_129:\n        /* \"#utility.yul\":5445:5450   */\n      0x00\n        /* \"#utility.yul\":5470:5535   */\n      tag_224\n        /* \"#utility.yul\":5486:5534   */\n      tag_225\n        /* \"#utility.yul\":5527:5533   */\n      dup5\n        /* \"#utility.yul\":5486:5534   */\n      tag_127\n      jump\t// in\n    tag_225:\n        /* \"#utility.yul\":5470:5535   */\n      tag_126\n      jump\t// in\n    tag_224:\n        /* \"#utility.yul\":5461:5535   */\n      swap1\n      pop\n        /* \"#utility.yul\":5558:5564   */\n      dup3\n        /* \"#utility.yul\":5551:5556   */\n      dup2\n        /* \"#utility.yul\":5544:5565   */\n      mstore\n        /* \"#utility.yul\":5596:5600   */\n      0x20\n        /* \"#utility.yul\":5589:5594   */\n      dup2\n        /* \"#utility.yul\":5585:5601   */\n      add\n        /* \"#utility.yul\":5634:5637   */\n      dup5\n        /* \"#utility.yul\":5625:5631   */\n      dup5\n        /* \"#utility.yul\":5620:5623   */\n      dup5\n        /* \"#utility.yul\":5616:5632   */\n      add\n        /* \"#utility.yul\":5613:5638   */\n      gt\n        /* \"#utility.yul\":5610:5722   */\n      iszero\n      tag_226\n      jumpi\n        /* \"#utility.yul\":5641:5720   */\n      tag_227\n      tag_122\n      jump\t// in\n    tag_227:\n        /* \"#utility.yul\":5610:5722   */\n    tag_226:\n        /* \"#utility.yul\":5731:5785   */\n      tag_228\n        /* \"#utility.yul\":5778:5784   */\n      dup5\n        /* \"#utility.yul\":5773:5776   */\n      dup3\n        /* \"#utility.yul\":5768:5771   */\n      dup6\n        /* \"#utility.yul\":5731:5785   */\n      tag_128\n      jump\t// in\n    tag_228:\n        /* \"#utility.yul\":5451:5791   */\n      pop\n        /* \"#utility.yul\":5368:5791   */\n      swap4\n      swap3\n      pop\n      pop\n      pop\n      jump\t// out\n        /* \"#utility.yul\":5810:6148   */\n    tag_130:\n        /* \"#utility.yul\":5865:5870   */\n      0x00\n        /* \"#utility.yul\":5914:5917   */\n      dup3\n        /* \"#utility.yul\":5907:5911   */\n      0x1f\n        /* \"#utility.yul\":5899:5905   */\n      dup4\n        /* \"#utility.yul\":5895:5912   */\n      add\n        /* \"#utility.yul\":5891:5918   */\n      slt\n        /* \"#utility.yul\":5881:6003   */\n      tag_230\n      jumpi\n        /* \"#utility.yul\":5922:6001   */\n      tag_231\n      tag_121\n      jump\t// in\n    tag_231:\n        /* \"#utility.yul\":5881:6003   */\n    tag_230:\n        /* \"#utility.yul\":6039:6045   */\n      dup2\n        /* \"#utility.yul\":6026:6046   */\n      calldataload\n        /* \"#utility.yul\":6064:6142   */\n      tag_232\n        /* \"#utility.yul\":6138:6141   */\n      dup5\n        /* \"#utility.yul\":6130:6136   */\n      dup3\n        /* \"#utility.yul\":6123:6127   */\n      0x20\n        /* \"#utility.yul\":6115:6121   */\n      dup7\n        /* \"#utility.yul\":6111:6128   */\n      add\n        /* \"#utility.yul\":6064:6142   */\n      tag_129\n      jump\t// in\n    tag_232:\n        /* \"#utility.yul\":6055:6142   */\n      swap2\n      pop\n        /* \"#utility.yul\":5871:6148   */\n      pop\n        /* \"#utility.yul\":5810:6148   */\n      swap3\n      swap2\n      pop\n      pop\n      jump\t// out\n        /* \"#utility.yul\":6154:6967   */\n    tag_50:\n        /* \"#utility.yul\":6248:6254   */\n      0x00\n        /* \"#utility.yul\":6256:6262   */\n      dup1\n        /* \"#utility.yul\":6264:6270   */\n      0x00\n        /* \"#utility.yul\":6313:6315   */\n      0x60\n        /* \"#utility.yul\":6301:6310   */\n      dup5\n        /* \"#utility.yul\":6292:6299   */\n      dup7\n        /* \"#utility.yul\":6288:6311   */\n      sub\n        /* \"#utility.yul\":6284:6316   */\n      slt\n        /* \"#utility.yul\":6281:6400   */\n      iszero\n      tag_234\n      jumpi\n        /* \"#utility.yul\":6319:6398   */\n      tag_235\n      tag_104\n      jump\t// in\n    tag_235:\n        /* \"#utility.yul\":6281:6400   */\n    tag_234:\n        /* \"#utility.yul\":6439:6440   */\n      0x00\n        /* \"#utility.yul\":6464:6525   */\n      tag_236\n        /* \"#utility.yul\":6517:6524   */\n      dup7\n        /* \"#utility.yul\":6508:6514   */\n      dup3\n        /* \"#utility.yul\":6497:6506   */\n      dup8\n        /* \"#utility.yul\":6493:6515   */\n      add\n        /* \"#utility.yul\":6464:6525   */\n      tag_120\n      jump\t// in\n    tag_236:\n        /* \"#utility.yul\":6454:6525   */\n      swap4\n      pop\n        /* \"#utility.yul\":6410:6535   */\n      pop\n        /* \"#utility.yul\":6574:6576   */\n      0x20\n        /* \"#utility.yul\":6600:6653   */\n      tag_237\n        /* \"#utility.yul\":6645:6652   */\n      dup7\n        /* \"#utility.yul\":6636:6642   */\n      dup3\n        /* \"#utility.yul\":6625:6634   */\n      dup8\n        /* \"#utility.yul\":6621:6643   */\n      add\n        /* \"#utility.yul\":6600:6653   */\n      tag_116\n      jump\t// in\n    tag_237:\n        /* \"#utility.yul\":6590:6653   */\n      swap3\n      pop\n        /* \"#utility.yul\":6545:6663   */\n      pop\n        /* \"#utility.yul\":6730:6732   */\n      0x40\n        /* \"#utility.yul\":6719:6728   */\n      dup5\n        /* \"#utility.yul\":6715:6733   */\n      add\n        /* \"#utility.yul\":6702:6734   */\n      calldataload\n        /* \"#utility.yul\":6761:6779   */\n      0xffffffffffffffff\n        /* \"#utility.yul\":6753:6759   */\n      dup2\n        /* \"#utility.yul\":6750:6780   */\n      gt\n        /* \"#utility.yul\":6747:6864   */\n      iszero\n      tag_238\n      jumpi\n        /* \"#utility.yul\":6783:6862   */\n      tag_239\n      tag_105\n      jump\t// in\n    tag_239:\n        /* \"#utility.yul\":6747:6864   */\n    tag_238:\n        /* \"#utility.yul\":6888:6950   */\n      tag_240\n        /* \"#utility.yul\":6942:6949   */\n      dup7\n        /* \"#utility.yul\":6933:6939   */\n      dup3\n        /* \"#utility.yul\":6922:6931   */\n      dup8\n        /* \"#utility.yul\":6918:6940   */\n      add\n        /* \"#utility.yul\":6888:6950   */\n      tag_130\n      jump\t// in\n    tag_240:\n        /* \"#utility.yul\":6878:6950   */\n      swap2\n      pop\n        /* \"#utility.yul\":6673:6960   */\n      pop\n        /* \"#utility.yul\":6154:6967   */\n      swap3\n      pop\n      swap3\n      pop\n      swap3\n      jump\t// out\n        /* \"#utility.yul\":6973:7071   */\n    tag_131:\n        /* \"#utility.yul\":7024:7030   */\n      0x00\n        /* \"#utility.yul\":7058:7063   */\n      dup2\n        /* \"#utility.yul\":7052:7064   */\n      mload\n        /* \"#utility.yul\":7042:7064   */\n      swap1\n      pop\n        /* \"#utility.yul\":6973:7071   */\n      swap2\n      swap1\n      pop\n      jump\t// out\n        /* \"#utility.yul\":7077:7245   */\n    tag_132:\n        /* \"#utility.yul\":7160:7171   */\n      0x00\n        /* \"#utility.yul\":7194:7200   */\n      dup3\n        /* \"#utility.yul\":7189:7192   */\n      dup3\n        /* \"#utility.yul\":7182:7201   */\n      mstore\n        /* \"#utility.yul\":7234:7238   */\n      0x20\n        /* \"#utility.yul\":7229:7232   */\n      dup3\n        /* \"#utility.yul\":7225:7239   */\n      add\n        /* \"#utility.yul\":7210:7239   */\n      swap1\n      pop\n        /* \"#utility.yul\":7077:7245   */\n      swap3\n      swap2\n      pop\n      pop\n      jump\t// out\n        /* \"#utility.yul\":7251:7497   */\n    tag_133:\n        /* \"#utility.yul\":7332:7333   */\n      0x00\n        /* \"#utility.yul\":7342:7455   */\n    tag_244:\n        /* \"#utility.yul\":7356:7362   */\n      dup4\n        /* \"#utility.yul\":7353:7354   */\n      dup2\n        /* \"#utility.yul\":7350:7363   */\n      lt\n        /* \"#utility.yul\":7342:7455   */\n      iszero\n      tag_246\n      jumpi\n        /* \"#utility.yul\":7441:7442   */\n      dup1\n        /* \"#utility.yul\":7436:7439   */\n      dup3\n        /* \"#utility.yul\":7432:7443   */\n      add\n        /* \"#utility.yul\":7426:7444   */\n      mload\n        /* \"#utility.yul\":7422:7423   */\n      dup2\n        /* \"#utility.yul\":7417:7420   */\n      dup5\n        /* \"#utility.yul\":7413:7424   */\n      add\n        /* \"#utility.yul\":7406:7445   */\n      mstore\n        /* \"#utility.yul\":7378:7380   */\n      0x20\n        /* \"#utility.yul\":7375:7376   */\n      dup2\n        /* \"#utility.yul\":7371:7381   */\n      add\n        /* \"#utility.yul\":7366:7381   */\n      swap1\n      pop\n        /* \"#utility.yul\":7342:7455   */\n      jump(tag_244)\n    tag_246:\n        /* \"#utility.yul\":7489:7490   */\n      0x00\n        /* \"#utility.yul\":7480:7486   */\n      dup5\n        /* \"#utility.yul\":7475:7478   */\n      dup5\n        /* \"#utility.yul\":7471:7487   */\n      add\n        /* \"#utility.yul\":7464:7491   */\n      mstore\n        /* \"#utility.yul\":7313:7497   */\n      pop\n        /* \"#utility.yul\":7251:7497   */\n      pop\n      pop\n      pop\n      jump\t// out\n        /* \"#utility.yul\":7503:7876   */\n    tag_134:\n        /* \"#utility.yul\":7589:7592   */\n      0x00\n        /* \"#utility.yul\":7617:7655   */\n      tag_248\n        /* \"#utility.yul\":7649:7654   */\n      dup3\n        /* \"#utility.yul\":7617:7655   */\n      tag_131\n      jump\t// in\n    tag_248:\n        /* \"#utility.yul\":7671:7741   */\n      tag_249\n        /* \"#utility.yul\":7734:7740   */\n      dup2\n        /* \"#utility.yul\":7729:7732   */\n      dup6\n        /* \"#utility.yul\":7671:7741   */\n      tag_132\n      jump\t// in\n    tag_249:\n        /* \"#utility.yul\":7664:7741   */\n      swap4\n      pop\n        /* \"#utility.yul\":7750:7815   */\n      tag_250\n        /* \"#utility.yul\":7808:7814   */\n      dup2\n        /* \"#utility.yul\":7803:7806   */\n      dup6\n        /* \"#utility.yul\":7796:7800   */\n      0x20\n        /* \"#utility.yul\":7789:7794   */\n      dup7\n        /* \"#utility.yul\":7785:7801   */\n      add\n        /* \"#utility.yul\":7750:7815   */\n      tag_133\n      jump\t// in\n    tag_250:\n        /* \"#utility.yul\":7840:7869   */\n      tag_251\n        /* \"#utility.yul\":7862:7868   */\n      dup2\n        /* \"#utility.yul\":7840:7869   */\n      tag_123\n      jump\t// in\n    tag_251:\n        /* \"#utility.yul\":7835:7838   */\n      dup5\n        /* \"#utility.yul\":7831:7870   */\n      add\n        /* \"#utility.yul\":7824:7870   */\n      swap2\n      pop\n        /* \"#utility.yul\":7593:7876   */\n      pop\n        /* \"#utility.yul\":7503:7876   */\n      swap3\n      swap2\n      pop\n      pop\n      jump\t// out\n        /* \"#utility.yul\":7882:8191   */\n    tag_53:\n        /* \"#utility.yul\":7993:7997   */\n      0x00\n        /* \"#utility.yul\":8031:8033   */\n      0x20\n        /* \"#utility.yul\":8020:8029   */\n      dup3\n        /* \"#utility.yul\":8016:8034   */\n      add\n        /* \"#utility.yul\":8008:8034   */\n      swap1\n      pop\n        /* \"#utility.yul\":8080:8089   */\n      dup2\n        /* \"#utility.yul\":8074:8078   */\n      dup2\n        /* \"#utility.yul\":8070:8090   */\n      sub\n        /* \"#utility.yul\":8066:8067   */\n      0x00\n        /* \"#utility.yul\":8055:8064   */\n      dup4\n        /* \"#utility.yul\":8051:8068   */\n      add\n        /* \"#utility.yul\":8044:8091   */\n      mstore\n        /* \"#utility.yul\":8108:8184   */\n      tag_253\n        /* \"#utility.yul\":8179:8183   */\n      dup2\n        /* \"#utility.yul\":8170:8176   */\n      dup5\n        /* \"#utility.yul\":8108:8184   */\n      tag_134\n      jump\t// in\n    tag_253:\n        /* \"#utility.yul\":8100:8184   */\n      swap1\n      pop\n        /* \"#utility.yul\":7882:8191   */\n      swap3\n      swap2\n      pop\n      pop\n      jump\t// out\n        /* \"#utility.yul\":8197:8339   */\n    tag_135:\n        /* \"#utility.yul\":8300:8332   */\n      tag_255\n        /* \"#utility.yul\":8326:8331   */\n      dup2\n        /* \"#utility.yul\":8300:8332   */\n      tag_118\n      jump\t// in\n    tag_255:\n        /* \"#utility.yul\":8295:8298   */\n      dup3\n        /* \"#utility.yul\":8288:8333   */\n      mstore\n        /* \"#utility.yul\":8197:8339   */\n      pop\n      pop\n      jump\t// out\n        /* \"#utility.yul\":8345:8599   */\n    tag_58:\n        /* \"#utility.yul\":8454:8458   */\n      0x00\n        /* \"#utility.yul\":8492:8494   */\n      0x20\n        /* \"#utility.yul\":8481:8490   */\n      dup3\n        /* \"#utility.yul\":8477:8495   */\n      add\n        /* \"#utility.yul\":8469:8495   */\n      swap1\n      pop\n        /* \"#utility.yul\":8505:8592   */\n      tag_257\n        /* \"#utility.yul\":8589:8590   */\n      0x00\n        /* \"#utility.yul\":8578:8587   */\n      dup4\n        /* \"#utility.yul\":8574:8591   */\n      add\n        /* \"#utility.yul\":8565:8571   */\n      dup5\n        /* \"#utility.yul\":8505:8592   */\n      tag_135\n      jump\t// in\n    tag_257:\n        /* \"#utility.yul\":8345:8599   */\n      swap3\n      swap2\n      pop\n      pop\n      jump\t// out\n        /* \"#utility.yul\":8605:8950   */\n    tag_62:\n        /* \"#utility.yul\":8672:8678   */\n      0x00\n        /* \"#utility.yul\":8721:8723   */\n      0x20\n        /* \"#utility.yul\":8709:8718   */\n      dup3\n        /* \"#utility.yul\":8700:8707   */\n      dup5\n        /* \"#utility.yul\":8696:8719   */\n      sub\n        /* \"#utility.yul\":8692:8724   */\n      slt\n        /* \"#utility.yul\":8689:8808   */\n      iszero\n      tag_259\n      jumpi\n        /* \"#utility.yul\":8727:8806   */\n      tag_260\n      tag_104\n      jump\t// in\n    tag_260:\n        /* \"#utility.yul\":8689:8808   */\n    tag_259:\n        /* \"#utility.yul\":8847:8848   */\n      0x00\n        /* \"#utility.yul\":8872:8933   */\n      tag_261\n        /* \"#utility.yul\":8925:8932   */\n      dup5\n        /* \"#utility.yul\":8916:8922   */\n      dup3\n        /* \"#utility.yul\":8905:8914   */\n      dup6\n        /* \"#utility.yul\":8901:8923   */\n      add\n        /* \"#utility.yul\":8872:8933   */\n      tag_120\n      jump\t// in\n    tag_261:\n        /* \"#utility.yul\":8862:8933   */\n      swap2\n      pop\n        /* \"#utility.yul\":8818:8943   */\n      pop\n        /* \"#utility.yul\":8605:8950   */\n      swap3\n      swap2\n      pop\n      pop\n      jump\t// out\n        /* \"#utility.yul\":8956:9125   */\n    tag_136:\n        /* \"#utility.yul\":9040:9051   */\n      0x00\n        /* \"#utility.yul\":9074:9080   */\n      dup3\n        /* \"#utility.yul\":9069:9072   */\n      dup3\n        /* \"#utility.yul\":9062:9081   */\n      mstore\n        /* \"#utility.yul\":9114:9118   */\n      0x20\n        /* \"#utility.yul\":9109:9112   */\n      dup3\n        /* \"#utility.yul\":9105:9119   */\n      add\n        /* \"#utility.yul\":9090:9119   */\n      swap1\n      pop\n        /* \"#utility.yul\":8956:9125   */\n      swap3\n      swap2\n      pop\n      pop\n      jump\t// out\n        /* \"#utility.yul\":9131:9380   */\n    tag_137:\n        /* \"#utility.yul\":9271:9305   */\n      0x596f7520617265206e6f7420746865206f776e65722e20596f752063616e6e6f\n        /* \"#utility.yul\":9267:9268   */\n      0x00\n        /* \"#utility.yul\":9259:9265   */\n      dup3\n        /* \"#utility.yul\":9255:9269   */\n      add\n        /* \"#utility.yul\":9248:9306   */\n      mstore\n        /* \"#utility.yul\":9340:9372   */\n      0x7420736574206120677561726469616e2c2061626f7274696e672e2e2e210000\n        /* \"#utility.yul\":9335:9337   */\n      0x20\n        /* \"#utility.yul\":9327:9333   */\n      dup3\n        /* \"#utility.yul\":9323:9338   */\n      add\n        /* \"#utility.yul\":9316:9373   */\n      mstore\n        /* \"#utility.yul\":9131:9380   */\n      pop\n      jump\t// out\n        /* \"#utility.yul\":9386:9752   */\n    tag_138:\n        /* \"#utility.yul\":9528:9531   */\n      0x00\n        /* \"#utility.yul\":9549:9616   */\n      tag_265\n        /* \"#utility.yul\":9613:9615   */\n      0x3e\n        /* \"#utility.yul\":9608:9611   */\n      dup4\n        /* \"#utility.yul\":9549:9616   */\n      tag_136\n      jump\t// in\n    tag_265:\n        /* \"#utility.yul\":9542:9616   */\n      swap2\n      pop\n        /* \"#utility.yul\":9625:9718   */\n      tag_266\n        /* \"#utility.yul\":9714:9717   */\n      dup3\n        /* \"#utility.yul\":9625:9718   */\n      tag_137\n      jump\t// in\n    tag_266:\n        /* \"#utility.yul\":9743:9745   */\n      0x40\n        /* \"#utility.yul\":9738:9741   */\n      dup3\n        /* \"#utility.yul\":9734:9746   */\n      add\n        /* \"#utility.yul\":9727:9746   */\n      swap1\n      pop\n        /* \"#utility.yul\":9386:9752   */\n      swap2\n      swap1\n      pop\n      jump\t// out\n        /* \"#utility.yul\":9758:10177   */\n    tag_67:\n        /* \"#utility.yul\":9924:9928   */\n      0x00\n        /* \"#utility.yul\":9962:9964   */\n      0x20\n        /* \"#utility.yul\":9951:9960   */\n      dup3\n        /* \"#utility.yul\":9947:9965   */\n      add\n        /* \"#utility.yul\":9939:9965   */\n      swap1\n      pop\n        /* \"#utility.yul\":10011:10020   */\n      dup2\n        /* \"#utility.yul\":10005:10009   */\n      dup2\n        /* \"#utility.yul\":10001:10021   */\n      sub\n        /* \"#utility.yul\":9997:9998   */\n      0x00\n        /* \"#utility.yul\":9986:9995   */\n      dup4\n        /* \"#utility.yul\":9982:9999   */\n      add\n        /* \"#utility.yul\":9975:10022   */\n      mstore\n        /* \"#utility.yul\":10039:10170   */\n      tag_268\n        /* \"#utility.yul\":10165:10169   */\n      dup2\n        /* \"#utility.yul\":10039:10170   */\n      tag_138\n      jump\t// in\n    tag_268:\n        /* \"#utility.yul\":10031:10170   */\n      swap1\n      pop\n        /* \"#utility.yul\":9758:10177   */\n      swap2\n      swap1\n      pop\n      jump\t// out\n        /* \"#utility.yul\":10183:10431   */\n    tag_139:\n        /* \"#utility.yul\":10323:10357   */\n      0x596f7520617265206e6f7420746865206f776e65722e20596f752063616e6e6f\n        /* \"#utility.yul\":10319:10320   */\n      0x00\n        /* \"#utility.yul\":10311:10317   */\n      dup3\n        /* \"#utility.yul\":10307:10321   */\n      add\n        /* \"#utility.yul\":10300:10358   */\n      mstore\n        /* \"#utility.yul\":10392:10423   */\n      0x742073657420616c6c6f77616e63652c2061626f7274696e672e2e2e21000000\n        /* \"#utility.yul\":10387:10389   */\n      0x20\n        /* \"#utility.yul\":10379:10385   */\n      dup3\n        /* \"#utility.yul\":10375:10390   */\n      add\n        /* \"#utility.yul\":10368:10424   */\n      mstore\n        /* \"#utility.yul\":10183:10431   */\n      pop\n      jump\t// out\n        /* \"#utility.yul\":10437:10803   */\n    tag_140:\n        /* \"#utility.yul\":10579:10582   */\n      0x00\n        /* \"#utility.yul\":10600:10667   */\n      tag_271\n        /* \"#utility.yul\":10664:10666   */\n      0x3d\n        /* \"#utility.yul\":10659:10662   */\n      dup4\n        /* \"#utility.yul\":10600:10667   */\n      tag_136\n      jump\t// in\n    tag_271:\n        /* \"#utility.yul\":10593:10667   */\n      swap2\n      pop\n        /* \"#utility.yul\":10676:10769   */\n      tag_272\n        /* \"#utility.yul\":10765:10768   */\n      dup3\n        /* \"#utility.yul\":10676:10769   */\n      tag_139\n      jump\t// in\n    tag_272:\n        /* \"#utility.yul\":10794:10796   */\n      0x40\n        /* \"#utility.yul\":10789:10792   */\n      dup3\n        /* \"#utility.yul\":10785:10797   */\n      add\n        /* \"#utility.yul\":10778:10797   */\n      swap1\n      pop\n        /* \"#utility.yul\":10437:10803   */\n      swap2\n      swap1\n      pop\n      jump\t// out\n        /* \"#utility.yul\":10809:11228   */\n    tag_71:\n        /* \"#utility.yul\":10975:10979   */\n      0x00\n        /* \"#utility.yul\":11013:11015   */\n      0x20\n        /* \"#utility.yul\":11002:11011   */\n      dup3\n        /* \"#utility.yul\":10998:11016   */\n      add\n        /* \"#utility.yul\":10990:11016   */\n      swap1\n      pop\n        /* \"#utility.yul\":11062:11071   */\n      dup2\n        /* \"#utility.yul\":11056:11060   */\n      dup2\n        /* \"#utility.yul\":11052:11072   */\n      sub\n        /* \"#utility.yul\":11048:11049   */\n      0x00\n        /* \"#utility.yul\":11037:11046   */\n      dup4\n        /* \"#utility.yul\":11033:11050   */\n      add\n        /* \"#utility.yul\":11026:11073   */\n      mstore\n        /* \"#utility.yul\":11090:11221   */\n      tag_274\n        /* \"#utility.yul\":11216:11220   */\n      dup2\n        /* \"#utility.yul\":11090:11221   */\n      tag_140\n      jump\t// in\n    tag_274:\n        /* \"#utility.yul\":11082:11221   */\n      swap1\n      pop\n        /* \"#utility.yul\":10809:11228   */\n      swap2\n      swap1\n      pop\n      jump\t// out\n        /* \"#utility.yul\":11234:11527   */\n    tag_141:\n        /* \"#utility.yul\":11374:11408   */\n      0x596f7520617265206e6f7420616c6c6f77656420746f2073656e6420616e7974\n        /* \"#utility.yul\":11370:11371   */\n      0x00\n        /* \"#utility.yul\":11362:11368   */\n      dup3\n        /* \"#utility.yul\":11358:11372   */\n      add\n        /* \"#utility.yul\":11351:11409   */\n      mstore\n        /* \"#utility.yul\":11443:11477   */\n      0x68696e672066726f6d207468697320636f6e74726163742c2061626f7274696e\n        /* \"#utility.yul\":11438:11440   */\n      0x20\n        /* \"#utility.yul\":11430:11436   */\n      dup3\n        /* \"#utility.yul\":11426:11441   */\n      add\n        /* \"#utility.yul\":11419:11478   */\n      mstore\n        /* \"#utility.yul\":11512:11519   */\n      0x672e2e2e21000000000000000000000000000000000000000000000000000000\n        /* \"#utility.yul\":11507:11509   */\n      0x40\n        /* \"#utility.yul\":11499:11505   */\n      dup3\n        /* \"#utility.yul\":11495:11510   */\n      add\n        /* \"#utility.yul\":11488:11520   */\n      mstore\n        /* \"#utility.yul\":11234:11527   */\n      pop\n      jump\t// out\n        /* \"#utility.yul\":11533:11899   */\n    tag_142:\n        /* \"#utility.yul\":11675:11678   */\n      0x00\n        /* \"#utility.yul\":11696:11763   */\n      tag_277\n        /* \"#utility.yul\":11760:11762   */\n      0x45\n        /* \"#utility.yul\":11755:11758   */\n      dup4\n        /* \"#utility.yul\":11696:11763   */\n      tag_136\n      jump\t// in\n    tag_277:\n        /* \"#utility.yul\":11689:11763   */\n      swap2\n      pop\n        /* \"#utility.yul\":11772:11865   */\n      tag_278\n        /* \"#utility.yul\":11861:11864   */\n      dup3\n        /* \"#utility.yul\":11772:11865   */\n      tag_141\n      jump\t// in\n    tag_278:\n        /* \"#utility.yul\":11890:11892   */\n      0x60\n        /* \"#utility.yul\":11885:11888   */\n      dup3\n        /* \"#utility.yul\":11881:11893   */\n      add\n        /* \"#utility.yul\":11874:11893   */\n      swap1\n      pop\n        /* \"#utility.yul\":11533:11899   */\n      swap2\n      swap1\n      pop\n      jump\t// out\n        /* \"#utility.yul\":11905:12324   */\n    tag_78:\n        /* \"#utility.yul\":12071:12075   */\n      0x00\n        /* \"#utility.yul\":12109:12111   */\n      0x20\n        /* \"#utility.yul\":12098:12107   */\n      dup3\n        /* \"#utility.yul\":12094:12112   */\n      add\n        /* \"#utility.yul\":12086:12112   */\n      swap1\n      pop\n        /* \"#utility.yul\":12158:12167   */\n      dup2\n        /* \"#utility.yul\":12152:12156   */\n      dup2\n        /* \"#utility.yul\":12148:12168   */\n      sub\n        /* \"#utility.yul\":12144:12145   */\n      0x00\n        /* \"#utility.yul\":12133:12142   */\n      dup4\n        /* \"#utility.yul\":12129:12146   */\n      add\n        /* \"#utility.yul\":12122:12169   */\n      mstore\n        /* \"#utility.yul\":12186:12317   */\n      tag_280\n        /* \"#utility.yul\":12312:12316   */\n      dup2\n        /* \"#utility.yul\":12186:12317   */\n      tag_142\n      jump\t// in\n    tag_280:\n        /* \"#utility.yul\":12178:12317   */\n      swap1\n      pop\n        /* \"#utility.yul\":11905:12324   */\n      swap2\n      swap1\n      pop\n      jump\t// out\n        /* \"#utility.yul\":12330:12619   */\n    tag_143:\n        /* \"#utility.yul\":12470:12504   */\n      0x596f752061726520747279696e6720746f2073656e64206d6f7265207468616e\n        /* \"#utility.yul\":12466:12467   */\n      0x00\n        /* \"#utility.yul\":12458:12464   */\n      dup3\n        /* \"#utility.yul\":12454:12468   */\n      add\n        /* \"#utility.yul\":12447:12505   */\n      mstore\n        /* \"#utility.yul\":12539:12573   */\n      0x20796f752061726520616c6c6f77656420746f2c2061626f7274696e672e2e2e\n        /* \"#utility.yul\":12534:12536   */\n      0x20\n        /* \"#utility.yul\":12526:12532   */\n      dup3\n        /* \"#utility.yul\":12522:12537   */\n      add\n        /* \"#utility.yul\":12515:12574   */\n      mstore\n        /* \"#utility.yul\":12608:12611   */\n      0x2100000000000000000000000000000000000000000000000000000000000000\n        /* \"#utility.yul\":12603:12605   */\n      0x40\n        /* \"#utility.yul\":12595:12601   */\n      dup3\n        /* \"#utility.yul\":12591:12606   */\n      add\n        /* \"#utility.yul\":12584:12612   */\n      mstore\n        /* \"#utility.yul\":12330:12619   */\n      pop\n      jump\t// out\n        /* \"#utility.yul\":12625:12991   */\n    tag_144:\n        /* \"#utility.yul\":12767:12770   */\n      0x00\n        /* \"#utility.yul\":12788:12855   */\n      tag_283\n        /* \"#utility.yul\":12852:12854   */\n      0x41\n        /* \"#utility.yul\":12847:12850   */\n      dup4\n        /* \"#utility.yul\":12788:12855   */\n      tag_136\n      jump\t// in\n    tag_283:\n        /* \"#utility.yul\":12781:12855   */\n      swap2\n      pop\n        /* \"#utility.yul\":12864:12957   */\n      tag_284\n        /* \"#utility.yul\":12953:12956   */\n      dup3\n        /* \"#utility.yul\":12864:12957   */\n      tag_143\n      jump\t// in\n    tag_284:\n        /* \"#utility.yul\":12982:12984   */\n      0x60\n        /* \"#utility.yul\":12977:12980   */\n      dup3\n        /* \"#utility.yul\":12973:12985   */\n      add\n        /* \"#utility.yul\":12966:12985   */\n      swap1\n      pop\n        /* \"#utility.yul\":12625:12991   */\n      swap2\n      swap1\n      pop\n      jump\t// out\n        /* \"#utility.yul\":12997:13416   */\n    tag_81:\n        /* \"#utility.yul\":13163:13167   */\n      0x00\n        /* \"#utility.yul\":13201:13203   */\n      0x20\n        /* \"#utility.yul\":13190:13199   */\n      dup3\n        /* \"#utility.yul\":13186:13204   */\n      add\n        /* \"#utility.yul\":13178:13204   */\n      swap1\n      pop\n        /* \"#utility.yul\":13250:13259   */\n      dup2\n        /* \"#utility.yul\":13244:13248   */\n      dup2\n        /* \"#utility.yul\":13240:13260   */\n      sub\n        /* \"#utility.yul\":13236:13237   */\n      0x00\n        /* \"#utility.yul\":13225:13234   */\n      dup4\n        /* \"#utility.yul\":13221:13238   */\n      add\n        /* \"#utility.yul\":13214:13261   */\n      mstore\n        /* \"#utility.yul\":13278:13409   */\n      tag_286\n        /* \"#utility.yul\":13404:13408   */\n      dup2\n        /* \"#utility.yul\":13278:13409   */\n      tag_144\n      jump\t// in\n    tag_286:\n        /* \"#utility.yul\":13270:13409   */\n      swap1\n      pop\n        /* \"#utility.yul\":12997:13416   */\n      swap2\n      swap1\n      pop\n      jump\t// out\n        /* \"#utility.yul\":13422:13602   */\n    tag_145:\n        /* \"#utility.yul\":13470:13547   */\n      0x4e487b7100000000000000000000000000000000000000000000000000000000\n        /* \"#utility.yul\":13467:13468   */\n      0x00\n        /* \"#utility.yul\":13460:13548   */\n      mstore\n        /* \"#utility.yul\":13567:13571   */\n      0x11\n        /* \"#utility.yul\":13564:13565   */\n      0x04\n        /* \"#utility.yul\":13557:13572   */\n      mstore\n        /* \"#utility.yul\":13591:13595   */\n      0x24\n        /* \"#utility.yul\":13588:13589   */\n      0x00\n        /* \"#utility.yul\":13581:13596   */\n      revert\n        /* \"#utility.yul\":13608:13802   */\n    tag_83:\n        /* \"#utility.yul\":13648:13652   */\n      0x00\n        /* \"#utility.yul\":13668:13688   */\n      tag_289\n        /* \"#utility.yul\":13686:13687   */\n      dup3\n        /* \"#utility.yul\":13668:13688   */\n      tag_114\n      jump\t// in\n    tag_289:\n        /* \"#utility.yul\":13663:13688   */\n      swap2\n      pop\n        /* \"#utility.yul\":13702:13722   */\n      tag_290\n        /* \"#utility.yul\":13720:13721   */\n      dup4\n        /* \"#utility.yul\":13702:13722   */\n      tag_114\n      jump\t// in\n    tag_290:\n        /* \"#utility.yul\":13697:13722   */\n      swap3\n      pop\n        /* \"#utility.yul\":13746:13747   */\n      dup3\n        /* \"#utility.yul\":13743:13744   */\n      dup3\n        /* \"#utility.yul\":13739:13748   */\n      sub\n        /* \"#utility.yul\":13731:13748   */\n      swap1\n      pop\n        /* \"#utility.yul\":13770:13771   */\n      dup2\n        /* \"#utility.yul\":13764:13768   */\n      dup2\n        /* \"#utility.yul\":13761:13772   */\n      gt\n        /* \"#utility.yul\":13758:13795   */\n      iszero\n      tag_291\n      jumpi\n        /* \"#utility.yul\":13775:13793   */\n      tag_292\n      tag_145\n      jump\t// in\n    tag_292:\n        /* \"#utility.yul\":13758:13795   */\n    tag_291:\n        /* \"#utility.yul\":13608:13802   */\n      swap3\n      swap2\n      pop\n      pop\n      jump\t// out\n        /* \"#utility.yul\":13808:13955   */\n    tag_146:\n        /* \"#utility.yul\":13909:13920   */\n      0x00\n        /* \"#utility.yul\":13946:13949   */\n      dup2\n        /* \"#utility.yul\":13931:13949   */\n      swap1\n      pop\n        /* \"#utility.yul\":13808:13955   */\n      swap3\n      swap2\n      pop\n      pop\n      jump\t// out\n        /* \"#utility.yul\":13961:14347   */\n    tag_147:\n        /* \"#utility.yul\":14065:14068   */\n      0x00\n        /* \"#utility.yul\":14093:14131   */\n      tag_295\n        /* \"#utility.yul\":14125:14130   */\n      dup3\n        /* \"#utility.yul\":14093:14131   */\n      tag_131\n      jump\t// in\n    tag_295:\n        /* \"#utility.yul\":14147:14235   */\n      tag_296\n        /* \"#utility.yul\":14228:14234   */\n      dup2\n        /* \"#utility.yul\":14223:14226   */\n      dup6\n        /* \"#utility.yul\":14147:14235   */\n      tag_146\n      jump\t// in\n    tag_296:\n        /* \"#utility.yul\":14140:14235   */\n      swap4\n      pop\n        /* \"#utility.yul\":14244:14309   */\n      tag_297\n        /* \"#utility.yul\":14302:14308   */\n      dup2\n        /* \"#utility.yul\":14297:14300   */\n      dup6\n        /* \"#utility.yul\":14290:14294   */\n      0x20\n        /* \"#utility.yul\":14283:14288   */\n      dup7\n        /* \"#utility.yul\":14279:14295   */\n      add\n        /* \"#utility.yul\":14244:14309   */\n      tag_133\n      jump\t// in\n    tag_297:\n        /* \"#utility.yul\":14334:14340   */\n      dup1\n        /* \"#utility.yul\":14329:14332   */\n      dup5\n        /* \"#utility.yul\":14325:14341   */\n      add\n        /* \"#utility.yul\":14318:14341   */\n      swap2\n      pop\n        /* \"#utility.yul\":14069:14347   */\n      pop\n        /* \"#utility.yul\":13961:14347   */\n      swap3\n      swap2\n      pop\n      pop\n      jump\t// out\n        /* \"#utility.yul\":14353:14624   */\n    tag_85:\n        /* \"#utility.yul\":14483:14486   */\n      0x00\n        /* \"#utility.yul\":14505:14598   */\n      tag_299\n        /* \"#utility.yul\":14594:14597   */\n      dup3\n        /* \"#utility.yul\":14585:14591   */\n      dup5\n        /* \"#utility.yul\":14505:14598   */\n      tag_147\n      jump\t// in\n    tag_299:\n        /* \"#utility.yul\":14498:14598   */\n      swap2\n      pop\n        /* \"#utility.yul\":14615:14618   */\n      dup2\n        /* \"#utility.yul\":14608:14618   */\n      swap1\n      pop\n        /* \"#utility.yul\":14353:14624   */\n      swap3\n      swap2\n      pop\n      pop\n      jump\t// out\n        /* \"#utility.yul\":14630:14862   */\n    tag_148:\n        /* \"#utility.yul\":14770:14804   */\n      0x43616c6c2066756e6374696f6e206973206e6f74207375636365737366756c2c\n        /* \"#utility.yul\":14766:14767   */\n      0x00\n        /* \"#utility.yul\":14758:14764   */\n      dup3\n        /* \"#utility.yul\":14754:14768   */\n      add\n        /* \"#utility.yul\":14747:14805   */\n      mstore\n        /* \"#utility.yul\":14839:14854   */\n      0x2061626f7274696e672e2e2e2100000000000000000000000000000000000000\n        /* \"#utility.yul\":14834:14836   */\n      0x20\n        /* \"#utility.yul\":14826:14832   */\n      dup3\n        /* \"#utility.yul\":14822:14837   */\n      add\n        /* \"#utility.yul\":14815:14855   */\n      mstore\n        /* \"#utility.yul\":14630:14862   */\n      pop\n      jump\t// out\n        /* \"#utility.yul\":14868:15234   */\n    tag_149:\n        /* \"#utility.yul\":15010:15013   */\n      0x00\n        /* \"#utility.yul\":15031:15098   */\n      tag_302\n        /* \"#utility.yul\":15095:15097   */\n      0x2d\n        /* \"#utility.yul\":15090:15093   */\n      dup4\n        /* \"#utility.yul\":15031:15098   */\n      tag_136\n      jump\t// in\n    tag_302:\n        /* \"#utility.yul\":15024:15098   */\n      swap2\n      pop\n        /* \"#utility.yul\":15107:15200   */\n      tag_303\n        /* \"#utility.yul\":15196:15199   */\n      dup3\n        /* \"#utility.yul\":15107:15200   */\n      tag_148\n      jump\t// in\n    tag_303:\n        /* \"#utility.yul\":15225:15227   */\n      0x40\n        /* \"#utility.yul\":15220:15223   */\n      dup3\n        /* \"#utility.yul\":15216:15228   */\n      add\n        /* \"#utility.yul\":15209:15228   */\n      swap1\n      pop\n        /* \"#utility.yul\":14868:15234   */\n      swap2\n      swap1\n      pop\n      jump\t// out\n        /* \"#utility.yul\":15240:15659   */\n    tag_91:\n        /* \"#utility.yul\":15406:15410   */\n      0x00\n        /* \"#utility.yul\":15444:15446   */\n      0x20\n        /* \"#utility.yul\":15433:15442   */\n      dup3\n        /* \"#utility.yul\":15429:15447   */\n      add\n        /* \"#utility.yul\":15421:15447   */\n      swap1\n      pop\n        /* \"#utility.yul\":15493:15502   */\n      dup2\n        /* \"#utility.yul\":15487:15491   */\n      dup2\n        /* \"#utility.yul\":15483:15503   */\n      sub\n        /* \"#utility.yul\":15479:15480   */\n      0x00\n        /* \"#utility.yul\":15468:15477   */\n      dup4\n        /* \"#utility.yul\":15464:15481   */\n      add\n        /* \"#utility.yul\":15457:15504   */\n      mstore\n        /* \"#utility.yul\":15521:15652   */\n      tag_305\n        /* \"#utility.yul\":15647:15651   */\n      dup2\n        /* \"#utility.yul\":15521:15652   */\n      tag_149\n      jump\t// in\n    tag_305:\n        /* \"#utility.yul\":15513:15652   */\n      swap1\n      pop\n        /* \"#utility.yul\":15240:15659   */\n      swap2\n      swap1\n      pop\n      jump\t// out\n        /* \"#utility.yul\":15665:15905   */\n    tag_150:\n        /* \"#utility.yul\":15805:15839   */\n      0x596f7520617265206e6f742074686520677561726469616e206f662074686973\n        /* \"#utility.yul\":15801:15802   */\n      0x00\n        /* \"#utility.yul\":15793:15799   */\n      dup3\n        /* \"#utility.yul\":15789:15803   */\n      add\n        /* \"#utility.yul\":15782:15840   */\n      mstore\n        /* \"#utility.yul\":15874:15897   */\n      0x2077616c6c65742c2061626f7274696e672e2e2e210000000000000000000000\n        /* \"#utility.yul\":15869:15871   */\n      0x20\n        /* \"#utility.yul\":15861:15867   */\n      dup3\n        /* \"#utility.yul\":15857:15872   */\n      add\n        /* \"#utility.yul\":15850:15898   */\n      mstore\n        /* \"#utility.yul\":15665:15905   */\n      pop\n      jump\t// out\n        /* \"#utility.yul\":15911:16277   */\n    tag_151:\n        /* \"#utility.yul\":16053:16056   */\n      0x00\n        /* \"#utility.yul\":16074:16141   */\n      tag_308\n        /* \"#utility.yul\":16138:16140   */\n      0x35\n        /* \"#utility.yul\":16133:16136   */\n      dup4\n        /* \"#utility.yul\":16074:16141   */\n      tag_136\n      jump\t// in\n    tag_308:\n        /* \"#utility.yul\":16067:16141   */\n      swap2\n      pop\n        /* \"#utility.yul\":16150:16243   */\n      tag_309\n        /* \"#utility.yul\":16239:16242   */\n      dup3\n        /* \"#utility.yul\":16150:16243   */\n      tag_150\n      jump\t// in\n    tag_309:\n        /* \"#utility.yul\":16268:16270   */\n      0x40\n        /* \"#utility.yul\":16263:16266   */\n      dup3\n        /* \"#utility.yul\":16259:16271   */\n      add\n        /* \"#utility.yul\":16252:16271   */\n      swap1\n      pop\n        /* \"#utility.yul\":15911:16277   */\n      swap2\n      swap1\n      pop\n      jump\t// out\n        /* \"#utility.yul\":16283:16702   */\n    tag_95:\n        /* \"#utility.yul\":16449:16453   */\n      0x00\n        /* \"#utility.yul\":16487:16489   */\n      0x20\n        /* \"#utility.yul\":16476:16485   */\n      dup3\n        /* \"#utility.yul\":16472:16490   */\n      add\n        /* \"#utility.yul\":16464:16490   */\n      swap1\n      pop\n        /* \"#utility.yul\":16536:16545   */\n      dup2\n        /* \"#utility.yul\":16530:16534   */\n      dup2\n        /* \"#utility.yul\":16526:16546   */\n      sub\n        /* \"#utility.yul\":16522:16523   */\n      0x00\n        /* \"#utility.yul\":16511:16520   */\n      dup4\n        /* \"#utility.yul\":16507:16524   */\n      add\n        /* \"#utility.yul\":16500:16547   */\n      mstore\n        /* \"#utility.yul\":16564:16695   */\n      tag_311\n        /* \"#utility.yul\":16690:16694   */\n      dup2\n        /* \"#utility.yul\":16564:16695   */\n      tag_151\n      jump\t// in\n    tag_311:\n        /* \"#utility.yul\":16556:16695   */\n      swap1\n      pop\n        /* \"#utility.yul\":16283:16702   */\n      swap2\n      swap1\n      pop\n      jump\t// out\n        /* \"#utility.yul\":16708:16889   */\n    tag_152:\n        /* \"#utility.yul\":16848:16881   */\n      0x596f7520616c726561647420766f7465642c2061626f7274696e672e2e2e2100\n        /* \"#utility.yul\":16844:16845   */\n      0x00\n        /* \"#utility.yul\":16836:16842   */\n      dup3\n        /* \"#utility.yul\":16832:16846   */\n      add\n        /* \"#utility.yul\":16825:16882   */\n      mstore\n        /* \"#utility.yul\":16708:16889   */\n      pop\n      jump\t// out\n        /* \"#utility.yul\":16895:17261   */\n    tag_153:\n        /* \"#utility.yul\":17037:17040   */\n      0x00\n        /* \"#utility.yul\":17058:17125   */\n      tag_314\n        /* \"#utility.yul\":17122:17124   */\n      0x1f\n        /* \"#utility.yul\":17117:17120   */\n      dup4\n        /* \"#utility.yul\":17058:17125   */\n      tag_136\n      jump\t// in\n    tag_314:\n        /* \"#utility.yul\":17051:17125   */\n      swap2\n      pop\n        /* \"#utility.yul\":17134:17227   */\n      tag_315\n        /* \"#utility.yul\":17223:17226   */\n      dup3\n        /* \"#utility.yul\":17134:17227   */\n      tag_152\n      jump\t// in\n    tag_315:\n        /* \"#utility.yul\":17252:17254   */\n      0x20\n        /* \"#utility.yul\":17247:17250   */\n      dup3\n        /* \"#utility.yul\":17243:17255   */\n      add\n        /* \"#utility.yul\":17236:17255   */\n      swap1\n      pop\n        /* \"#utility.yul\":16895:17261   */\n      swap2\n      swap1\n      pop\n      jump\t// out\n        /* \"#utility.yul\":17267:17686   */\n    tag_98:\n        /* \"#utility.yul\":17433:17437   */\n      0x00\n        /* \"#utility.yul\":17471:17473   */\n      0x20\n        /* \"#utility.yul\":17460:17469   */\n      dup3\n        /* \"#utility.yul\":17456:17474   */\n      add\n        /* \"#utility.yul\":17448:17474   */\n      swap1\n      pop\n        /* \"#utility.yul\":17520:17529   */\n      dup2\n        /* \"#utility.yul\":17514:17518   */\n      dup2\n        /* \"#utility.yul\":17510:17530   */\n      sub\n        /* \"#utility.yul\":17506:17507   */\n      0x00\n        /* \"#utility.yul\":17495:17504   */\n      dup4\n        /* \"#utility.yul\":17491:17508   */\n      add\n        /* \"#utility.yul\":17484:17531   */\n      mstore\n        /* \"#utility.yul\":17548:17679   */\n      tag_317\n        /* \"#utility.yul\":17674:17678   */\n      dup2\n        /* \"#utility.yul\":17548:17679   */\n      tag_153\n      jump\t// in\n    tag_317:\n        /* \"#utility.yul\":17540:17679   */\n      swap1\n      pop\n        /* \"#utility.yul\":17267:17686   */\n      swap2\n      swap1\n      pop\n      jump\t// out\n        /* \"#utility.yul\":17692:17925   */\n    tag_101:\n        /* \"#utility.yul\":17731:17734   */\n      0x00\n        /* \"#utility.yul\":17754:17778   */\n      tag_319\n        /* \"#utility.yul\":17772:17777   */\n      dup3\n        /* \"#utility.yul\":17754:17778   */\n      tag_114\n      jump\t// in\n    tag_319:\n        /* \"#utility.yul\":17745:17778   */\n      swap2\n      pop\n        /* \"#utility.yul\":17800:17866   */\n      0xffffffffffffffffffffffffffffffffffffffffffffffffffffffffffffffff\n        /* \"#utility.yul\":17793:17798   */\n      dup3\n        /* \"#utility.yul\":17790:17867   */\n      sub\n        /* \"#utility.yul\":17787:17890   */\n      tag_320\n      jumpi\n        /* \"#utility.yul\":17870:17888   */\n      tag_321\n      tag_145\n      jump\t// in\n    tag_321:\n        /* \"#utility.yul\":17787:17890   */\n    tag_320:\n        /* \"#utility.yul\":17917:17918   */\n      0x01\n        /* \"#utility.yul\":17910:17915   */\n      dup3\n        /* \"#utility.yul\":17906:17919   */\n      add\n        /* \"#utility.yul\":17899:17919   */\n      swap1\n      pop\n        /* \"#utility.yul\":17692:17925   */\n      swap2\n      swap1\n      pop\n      jump\t// out\n\n    auxdata: 0xa2646970667358221220ed8c7614cfcb4332f18551ab227ecb6045f05fae83a796ddb8fc409189501f5a64736f6c63430008140033\n}\n",
				"bytecode": {
					"linkReferences": {},
					"object": "608060405234801561000f575f80fd5b50335f806101000a81548173ffffffffffffffffffffffffffffffffffffffff021916908373ffffffffffffffffffffffffffffffffffffffff1602179055506114328061005c5f395ff3fe608060405260043610610089575f3560e01c80633e5beab9116100585780633e5beab91461015c57806383012be114610198578063850a6919146101c25780638da5cb5b146101fe578063b1f8100d1461022857610090565b80630633b14a146100945780630bc605ad146100d05780632b8a1c5a1461010c578063310ec4a71461013457610090565b3661009057005b5f80fd5b34801561009f575f80fd5b506100ba60048036038101906100b59190610abe565b610250565b6040516100c79190610b03565b60405180910390f35b3480156100db575f80fd5b506100f660048036038101906100f19190610abe565b61026d565b6040516101039190610b03565b60405180910390f35b348015610117575f80fd5b50610132600480360381019061012d9190610b46565b61028a565b005b34801561013f575f80fd5b5061015a60048036038101906101559190610bb7565b61036f565b005b348015610167575f80fd5b50610182600480360381019061017d9190610abe565b6104f9565b60405161018f9190610c04565b60405180910390f35b3480156101a3575f80fd5b506101ac61050e565b6040516101b99190610c04565b60405180910390f35b3480156101cd575f80fd5b506101e860048036038101906101e39190610d94565b610513565b6040516101f59190610e7a565b60405180910390f35b348015610209575f80fd5b5061021261077c565b60405161021f9190610ea9565b60405180910390f35b348015610233575f80fd5b5061024e60048036038101906102499190610ec2565b61079f565b005b6003602052805f5260405f205f915054906101000a900460ff1681565b6002602052805f5260405f205f915054906101000a900460ff1681565b5f8054906101000a900473ffffffffffffffffffffffffffffffffffffffff1673ffffffffffffffffffffffffffffffffffffffff163373ffffffffffffffffffffffffffffffffffffffff1614610317576040517f08c379a000000000000000000000000000000000000000000000000000000000815260040161030e90610f6d565b60405180910390fd5b8060035f8473ffffffffffffffffffffffffffffffffffffffff1673ffffffffffffffffffffffffffffffffffffffff1681526020019081526020015f205f6101000a81548160ff0219169083151502179055505050565b5f8054906101000a900473ffffffffffffffffffffffffffffffffffffffff1673ffffffffffffffffffffffffffffffffffffffff163373ffffffffffffffffffffffffffffffffffffffff16146103fc576040517f08c379a00000000000000000000000000000000000000000000000000000000081526004016103f390610ffb565b60405180910390fd5b8060015f8473ffffffffffffffffffffffffffffffffffffffff1673ffffffffffffffffffffffffffffffffffffffff1681526020019081526020015f20819055505f8111156104a057600160025f8473ffffffffffffffffffffffffffffffffffffffff1673ffffffffffffffffffffffffffffffffffffffff1681526020019081526020015f205f6101000a81548160ff0219169083151502179055506104f5565b5f60025f8473ffffffffffffffffffffffffffffffffffffffff1673ffffffffffffffffffffffffffffffffffffffff1681526020019081526020015f205f6101000a81548160ff0219169083151502179055505b5050565b6001602052805f5260405f205f915090505481565b600381565b60605f8054906101000a900473ffffffffffffffffffffffffffffffffffffffff1673ffffffffffffffffffffffffffffffffffffffff163373ffffffffffffffffffffffffffffffffffffffff16146106c45760025f3373ffffffffffffffffffffffffffffffffffffffff1673ffffffffffffffffffffffffffffffffffffffff1681526020019081526020015f205f9054906101000a900460ff166105f0576040517f08c379a00000000000000000000000000000000000000000000000000000000081526004016105e7906110af565b60405180910390fd5b8260015f3373ffffffffffffffffffffffffffffffffffffffff1673ffffffffffffffffffffffffffffffffffffffff1681526020019081526020015f20541015610670576040517f08c379a000000000000000000000000000000000000000000000000000000000815260040161066790611163565b60405180910390fd5b8260015f3373ffffffffffffffffffffffffffffffffffffffff1673ffffffffffffffffffffffffffffffffffffffff1681526020019081526020015f205f8282546106bc91906111ae565b925050819055505b5f808573ffffffffffffffffffffffffffffffffffffffff1685856040516106ec919061121b565b5f6040518083038185875af1925050503d805f8114610726576040519150601f19603f3d011682016040523d82523d5f602084013e61072b565b606091505b509150915081610770576040517f08c379a0000000000000000000000000000000000000000000000000000000008152600401610767906112a1565b60405180910390fd5b80925050509392505050565b5f8054906101000a900473ffffffffffffffffffffffffffffffffffffffff1681565b60035f3373ffffffffffffffffffffffffffffffffffffffff1673ffffffffffffffffffffffffffffffffffffffff1681526020019081526020015f205f9054906101000a900460ff16610828576040517f08c379a000000000000000000000000000000000000000000000000000000000815260040161081f9061132f565b60405180910390fd5b5f151560055f8373ffffffffffffffffffffffffffffffffffffffff1673ffffffffffffffffffffffffffffffffffffffff1681526020019081526020015f205f3373ffffffffffffffffffffffffffffffffffffffff1673ffffffffffffffffffffffffffffffffffffffff1681526020019081526020015f205f9054906101000a900460ff161515146108f2576040517f08c379a00000000000000000000000000000000000000000000000000000000081526004016108e990611397565b60405180910390fd5b60045f9054906101000a900473ffffffffffffffffffffffffffffffffffffffff1673ffffffffffffffffffffffffffffffffffffffff168173ffffffffffffffffffffffffffffffffffffffff161461098e578060045f6101000a81548173ffffffffffffffffffffffffffffffffffffffff021916908373ffffffffffffffffffffffffffffffffffffffff1602179055505f6006819055505b60065f8154809291906109a0906113b5565b9190505550600360065410610a505760045f9054906101000a900473ffffffffffffffffffffffffffffffffffffffff165f806101000a81548173ffffffffffffffffffffffffffffffffffffffff021916908373ffffffffffffffffffffffffffffffffffffffff1602179055505f60045f6101000a81548173ffffffffffffffffffffffffffffffffffffffff021916908373ffffffffffffffffffffffffffffffffffffffff1602179055505b50565b5f604051905090565b5f80fd5b5f80fd5b5f73ffffffffffffffffffffffffffffffffffffffff82169050919050565b5f610a8d82610a64565b9050919050565b610a9d81610a83565b8114610aa7575f80fd5b50565b5f81359050610ab881610a94565b92915050565b5f60208284031215610ad357610ad2610a5c565b5b5f610ae084828501610aaa565b91505092915050565b5f8115159050919050565b610afd81610ae9565b82525050565b5f602082019050610b165f830184610af4565b92915050565b610b2581610ae9565b8114610b2f575f80fd5b50565b5f81359050610b4081610b1c565b92915050565b5f8060408385031215610b5c57610b5b610a5c565b5b5f610b6985828601610aaa565b9250506020610b7a85828601610b32565b9150509250929050565b5f819050919050565b610b9681610b84565b8114610ba0575f80fd5b50565b5f81359050610bb181610b8d565b92915050565b5f8060408385031215610bcd57610bcc610a5c565b5b5f610bda85828601610aaa565b9250506020610beb85828601610ba3565b9150509250929050565b610bfe81610b84565b82525050565b5f602082019050610c175f830184610bf5565b92915050565b5f610c2782610a64565b9050919050565b610c3781610c1d565b8114610c41575f80fd5b50565b5f81359050610c5281610c2e565b92915050565b5f80fd5b5f80fd5b5f601f19601f8301169050919050565b7f4e487b71000000000000000000000000000000000000000000000000000000005f52604160045260245ffd5b610ca682610c60565b810181811067ffffffffffffffff82111715610cc557610cc4610c70565b5b80604052505050565b5f610cd7610a53565b9050610ce38282610c9d565b919050565b5f67ffffffffffffffff821115610d0257610d01610c70565b5b610d0b82610c60565b9050602081019050919050565b828183375f83830152505050565b5f610d38610d3384610ce8565b610cce565b905082815260208101848484011115610d5457610d53610c5c565b5b610d5f848285610d18565b509392505050565b5f82601f830112610d7b57610d7a610c58565b5b8135610d8b848260208601610d26565b91505092915050565b5f805f60608486031215610dab57610daa610a5c565b5b5f610db886828701610c44565b9350506020610dc986828701610ba3565b925050604084013567ffffffffffffffff811115610dea57610de9610a60565b5b610df686828701610d67565b9150509250925092565b5f81519050919050565b5f82825260208201905092915050565b5f5b83811015610e37578082015181840152602081019050610e1c565b5f8484015250505050565b5f610e4c82610e00565b610e568185610e0a565b9350610e66818560208601610e1a565b610e6f81610c60565b840191505092915050565b5f6020820190508181035f830152610e928184610e42565b905092915050565b610ea381610c1d565b82525050565b5f602082019050610ebc5f830184610e9a565b92915050565b5f60208284031215610ed757610ed6610a5c565b5b5f610ee484828501610c44565b91505092915050565b5f82825260208201905092915050565b7f596f7520617265206e6f7420746865206f776e65722e20596f752063616e6e6f5f8201527f7420736574206120677561726469616e2c2061626f7274696e672e2e2e210000602082015250565b5f610f57603e83610eed565b9150610f6282610efd565b604082019050919050565b5f6020820190508181035f830152610f8481610f4b565b9050919050565b7f596f7520617265206e6f7420746865206f776e65722e20596f752063616e6e6f5f8201527f742073657420616c6c6f77616e63652c2061626f7274696e672e2e2e21000000602082015250565b5f610fe5603d83610eed565b9150610ff082610f8b565b604082019050919050565b5f6020820190508181035f83015261101281610fd9565b9050919050565b7f596f7520617265206e6f7420616c6c6f77656420746f2073656e6420616e79745f8201527f68696e672066726f6d207468697320636f6e74726163742c2061626f7274696e60208201527f672e2e2e21000000000000000000000000000000000000000000000000000000604082015250565b5f611099604583610eed565b91506110a482611019565b606082019050919050565b5f6020820190508181035f8301526110c68161108d565b9050919050565b7f596f752061726520747279696e6720746f2073656e64206d6f7265207468616e5f8201527f20796f752061726520616c6c6f77656420746f2c2061626f7274696e672e2e2e60208201527f2100000000000000000000000000000000000000000000000000000000000000604082015250565b5f61114d604183610eed565b9150611158826110cd565b606082019050919050565b5f6020820190508181035f83015261117a81611141565b9050919050565b7f4e487b71000000000000000000000000000000000000000000000000000000005f52601160045260245ffd5b5f6111b882610b84565b91506111c383610b84565b92508282039050818111156111db576111da611181565b5b92915050565b5f81905092915050565b5f6111f582610e00565b6111ff81856111e1565b935061120f818560208601610e1a565b80840191505092915050565b5f61122682846111eb565b915081905092915050565b7f43616c6c2066756e6374696f6e206973206e6f74207375636365737366756c2c5f8201527f2061626f7274696e672e2e2e2100000000000000000000000000000000000000602082015250565b5f61128b602d83610eed565b915061129682611231565b604082019050919050565b5f6020820190508181035f8301526112b88161127f565b9050919050565b7f596f7520617265206e6f742074686520677561726469616e206f6620746869735f8201527f2077616c6c65742c2061626f7274696e672e2e2e210000000000000000000000602082015250565b5f611319603583610eed565b9150611324826112bf565b604082019050919050565b5f6020820190508181035f8301526113468161130d565b9050919050565b7f596f7520616c726561647420766f7465642c2061626f7274696e672e2e2e21005f82015250565b5f611381601f83610eed565b915061138c8261134d565b602082019050919050565b5f6020820190508181035f8301526113ae81611375565b9050919050565b5f6113bf82610b84565b91507fffffffffffffffffffffffffffffffffffffffffffffffffffffffffffffffff82036113f1576113f0611181565b5b60018201905091905056fea2646970667358221220ed8c7614cfcb4332f18551ab227ecb6045f05fae83a796ddb8fc409189501f5a64736f6c63430008140033",
					"opcodes": "PUSH1 0x80 PUSH1 0x40 MSTORE CALLVALUE DUP1 ISZERO PUSH2 0xF JUMPI PUSH0 DUP1 REVERT JUMPDEST POP CALLER PUSH0 DUP1 PUSH2 0x100 EXP DUP2 SLOAD DUP2 PUSH20 0xFFFFFFFFFFFFFFFFFFFFFFFFFFFFFFFFFFFFFFFF MUL NOT AND SWAP1 DUP4 PUSH20 0xFFFFFFFFFFFFFFFFFFFFFFFFFFFFFFFFFFFFFFFF AND MUL OR SWAP1 SSTORE POP PUSH2 0x1432 DUP1 PUSH2 0x5C PUSH0 CODECOPY PUSH0 RETURN INVALID PUSH1 0x80 PUSH1 0x40 MSTORE PUSH1 0x4 CALLDATASIZE LT PUSH2 0x89 JUMPI PUSH0 CALLDATALOAD PUSH1 0xE0 SHR DUP1 PUSH4 0x3E5BEAB9 GT PUSH2 0x58 JUMPI DUP1 PUSH4 0x3E5BEAB9 EQ PUSH2 0x15C JUMPI DUP1 PUSH4 0x83012BE1 EQ PUSH2 0x198 JUMPI DUP1 PUSH4 0x850A6919 EQ PUSH2 0x1C2 JUMPI DUP1 PUSH4 0x8DA5CB5B EQ PUSH2 0x1FE JUMPI DUP1 PUSH4 0xB1F8100D EQ PUSH2 0x228 JUMPI PUSH2 0x90 JUMP JUMPDEST DUP1 PUSH4 0x633B14A EQ PUSH2 0x94 JUMPI DUP1 PUSH4 0xBC605AD EQ PUSH2 0xD0 JUMPI DUP1 PUSH4 0x2B8A1C5A EQ PUSH2 0x10C JUMPI DUP1 PUSH4 0x310EC4A7 EQ PUSH2 0x134 JUMPI PUSH2 0x90 JUMP JUMPDEST CALLDATASIZE PUSH2 0x90 JUMPI STOP JUMPDEST PUSH0 DUP1 REVERT JUMPDEST CALLVALUE DUP1 ISZERO PUSH2 0x9F JUMPI PUSH0 DUP1 REVERT JUMPDEST POP PUSH2 0xBA PUSH1 0x4 DUP1 CALLDATASIZE SUB DUP2 ADD SWAP1 PUSH2 0xB5 SWAP2 SWAP1 PUSH2 0xABE JUMP JUMPDEST PUSH2 0x250 JUMP JUMPDEST PUSH1 0x40 MLOAD PUSH2 0xC7 SWAP2 SWAP1 PUSH2 0xB03 JUMP JUMPDEST PUSH1 0x40 MLOAD DUP1 SWAP2 SUB SWAP1 RETURN JUMPDEST CALLVALUE DUP1 ISZERO PUSH2 0xDB JUMPI PUSH0 DUP1 REVERT JUMPDEST POP PUSH2 0xF6 PUSH1 0x4 DUP1 CALLDATASIZE SUB DUP2 ADD SWAP1 PUSH2 0xF1 SWAP2 SWAP1 PUSH2 0xABE JUMP JUMPDEST PUSH2 0x26D JUMP JUMPDEST PUSH1 0x40 MLOAD PUSH2 0x103 SWAP2 SWAP1 PUSH2 0xB03 JUMP JUMPDEST PUSH1 0x40 MLOAD DUP1 SWAP2 SUB SWAP1 RETURN JUMPDEST CALLVALUE DUP1 ISZERO PUSH2 0x117 JUMPI PUSH0 DUP1 REVERT JUMPDEST POP PUSH2 0x132 PUSH1 0x4 DUP1 CALLDATASIZE SUB DUP2 ADD SWAP1 PUSH2 0x12D SWAP2 SWAP1 PUSH2 0xB46 JUMP JUMPDEST PUSH2 0x28A JUMP JUMPDEST STOP JUMPDEST CALLVALUE DUP1 ISZERO PUSH2 0x13F JUMPI PUSH0 DUP1 REVERT JUMPDEST POP PUSH2 0x15A PUSH1 0x4 DUP1 CALLDATASIZE SUB DUP2 ADD SWAP1 PUSH2 0x155 SWAP2 SWAP1 PUSH2 0xBB7 JUMP JUMPDEST PUSH2 0x36F JUMP JUMPDEST STOP JUMPDEST CALLVALUE DUP1 ISZERO PUSH2 0x167 JUMPI PUSH0 DUP1 REVERT JUMPDEST POP PUSH2 0x182 PUSH1 0x4 DUP1 CALLDATASIZE SUB DUP2 ADD SWAP1 PUSH2 0x17D SWAP2 SWAP1 PUSH2 0xABE JUMP JUMPDEST PUSH2 0x4F9 JUMP JUMPDEST PUSH1 0x40 MLOAD PUSH2 0x18F SWAP2 SWAP1 PUSH2 0xC04 JUMP JUMPDEST PUSH1 0x40 MLOAD DUP1 SWAP2 SUB SWAP1 RETURN JUMPDEST CALLVALUE DUP1 ISZERO PUSH2 0x1A3 JUMPI PUSH0 DUP1 REVERT JUMPDEST POP PUSH2 0x1AC PUSH2 0x50E JUMP JUMPDEST PUSH1 0x40 MLOAD PUSH2 0x1B9 SWAP2 SWAP1 PUSH2 0xC04 JUMP JUMPDEST PUSH1 0x40 MLOAD DUP1 SWAP2 SUB SWAP1 RETURN JUMPDEST CALLVALUE DUP1 ISZERO PUSH2 0x1CD JUMPI PUSH0 DUP1 REVERT JUMPDEST POP PUSH2 0x1E8 PUSH1 0x4 DUP1 CALLDATASIZE SUB DUP2 ADD SWAP1 PUSH2 0x1E3 SWAP2 SWAP1 PUSH2 0xD94 JUMP JUMPDEST PUSH2 0x513 JUMP JUMPDEST PUSH1 0x40 MLOAD PUSH2 0x1F5 SWAP2 SWAP1 PUSH2 0xE7A JUMP JUMPDEST PUSH1 0x40 MLOAD DUP1 SWAP2 SUB SWAP1 RETURN JUMPDEST CALLVALUE DUP1 ISZERO PUSH2 0x209 JUMPI PUSH0 DUP1 REVERT JUMPDEST POP PUSH2 0x212 PUSH2 0x77C JUMP JUMPDEST PUSH1 0x40 MLOAD PUSH2 0x21F SWAP2 SWAP1 PUSH2 0xEA9 JUMP JUMPDEST PUSH1 0x40 MLOAD DUP1 SWAP2 SUB SWAP1 RETURN JUMPDEST CALLVALUE DUP1 ISZERO PUSH2 0x233 JUMPI PUSH0 DUP1 REVERT JUMPDEST POP PUSH2 0x24E PUSH1 0x4 DUP1 CALLDATASIZE SUB DUP2 ADD SWAP1 PUSH2 0x249 SWAP2 SWAP1 PUSH2 0xEC2 JUMP JUMPDEST PUSH2 0x79F JUMP JUMPDEST STOP JUMPDEST PUSH1 0x3 PUSH1 0x20 MSTORE DUP1 PUSH0 MSTORE PUSH1 0x40 PUSH0 KECCAK256 PUSH0 SWAP2 POP SLOAD SWAP1 PUSH2 0x100 EXP SWAP1 DIV PUSH1 0xFF AND DUP2 JUMP JUMPDEST PUSH1 0x2 PUSH1 0x20 MSTORE DUP1 PUSH0 MSTORE PUSH1 0x40 PUSH0 KECCAK256 PUSH0 SWAP2 POP SLOAD SWAP1 PUSH2 0x100 EXP SWAP1 DIV PUSH1 0xFF AND DUP2 JUMP JUMPDEST PUSH0 DUP1 SLOAD SWAP1 PUSH2 0x100 EXP SWAP1 DIV PUSH20 0xFFFFFFFFFFFFFFFFFFFFFFFFFFFFFFFFFFFFFFFF AND PUSH20 0xFFFFFFFFFFFFFFFFFFFFFFFFFFFFFFFFFFFFFFFF AND CALLER PUSH20 0xFFFFFFFFFFFFFFFFFFFFFFFFFFFFFFFFFFFFFFFF AND EQ PUSH2 0x317 JUMPI PUSH1 0x40 MLOAD PUSH32 0x8C379A000000000000000000000000000000000000000000000000000000000 DUP2 MSTORE PUSH1 0x4 ADD PUSH2 0x30E SWAP1 PUSH2 0xF6D JUMP JUMPDEST PUSH1 0x40 MLOAD DUP1 SWAP2 SUB SWAP1 REVERT JUMPDEST DUP1 PUSH1 0x3 PUSH0 DUP5 PUSH20 0xFFFFFFFFFFFFFFFFFFFFFFFFFFFFFFFFFFFFFFFF AND PUSH20 0xFFFFFFFFFFFFFFFFFFFFFFFFFFFFFFFFFFFFFFFF AND DUP2 MSTORE PUSH1 0x20 ADD SWAP1 DUP2 MSTORE PUSH1 0x20 ADD PUSH0 KECCAK256 PUSH0 PUSH2 0x100 EXP DUP2 SLOAD DUP2 PUSH1 0xFF MUL NOT AND SWAP1 DUP4 ISZERO ISZERO MUL OR SWAP1 SSTORE POP POP POP JUMP JUMPDEST PUSH0 DUP1 SLOAD SWAP1 PUSH2 0x100 EXP SWAP1 DIV PUSH20 0xFFFFFFFFFFFFFFFFFFFFFFFFFFFFFFFFFFFFFFFF AND PUSH20 0xFFFFFFFFFFFFFFFFFFFFFFFFFFFFFFFFFFFFFFFF AND CALLER PUSH20 0xFFFFFFFFFFFFFFFFFFFFFFFFFFFFFFFFFFFFFFFF AND EQ PUSH2 0x3FC JUMPI PUSH1 0x40 MLOAD PUSH32 0x8C379A000000000000000000000000000000000000000000000000000000000 DUP2 MSTORE PUSH1 0x4 ADD PUSH2 0x3F3 SWAP1 PUSH2 0xFFB JUMP JUMPDEST PUSH1 0x40 MLOAD DUP1 SWAP2 SUB SWAP1 REVERT JUMPDEST DUP1 PUSH1 0x1 PUSH0 DUP5 PUSH20 0xFFFFFFFFFFFFFFFFFFFFFFFFFFFFFFFFFFFFFFFF AND PUSH20 0xFFFFFFFFFFFFFFFFFFFFFFFFFFFFFFFFFFFFFFFF AND DUP2 MSTORE PUSH1 0x20 ADD SWAP1 DUP2 MSTORE PUSH1 0x20 ADD PUSH0 KECCAK256 DUP2 SWAP1 SSTORE POP PUSH0 DUP2 GT ISZERO PUSH2 0x4A0 JUMPI PUSH1 0x1 PUSH1 0x2 PUSH0 DUP5 PUSH20 0xFFFFFFFFFFFFFFFFFFFFFFFFFFFFFFFFFFFFFFFF AND PUSH20 0xFFFFFFFFFFFFFFFFFFFFFFFFFFFFFFFFFFFFFFFF AND DUP2 MSTORE PUSH1 0x20 ADD SWAP1 DUP2 MSTORE PUSH1 0x20 ADD PUSH0 KECCAK256 PUSH0 PUSH2 0x100 EXP DUP2 SLOAD DUP2 PUSH1 0xFF MUL NOT AND SWAP1 DUP4 ISZERO ISZERO MUL OR SWAP1 SSTORE POP PUSH2 0x4F5 JUMP JUMPDEST PUSH0 PUSH1 0x2 PUSH0 DUP5 PUSH20 0xFFFFFFFFFFFFFFFFFFFFFFFFFFFFFFFFFFFFFFFF AND PUSH20 0xFFFFFFFFFFFFFFFFFFFFFFFFFFFFFFFFFFFFFFFF AND DUP2 MSTORE PUSH1 0x20 ADD SWAP1 DUP2 MSTORE PUSH1 0x20 ADD PUSH0 KECCAK256 PUSH0 PUSH2 0x100 EXP DUP2 SLOAD DUP2 PUSH1 0xFF MUL NOT AND SWAP1 DUP4 ISZERO ISZERO MUL OR SWAP1 SSTORE POP JUMPDEST POP POP JUMP JUMPDEST PUSH1 0x1 PUSH1 0x20 MSTORE DUP1 PUSH0 MSTORE PUSH1 0x40 PUSH0 KECCAK256 PUSH0 SWAP2 POP SWAP1 POP SLOAD DUP2 JUMP JUMPDEST PUSH1 0x3 DUP2 JUMP JUMPDEST PUSH1 0x60 PUSH0 DUP1 SLOAD SWAP1 PUSH2 0x100 EXP SWAP1 DIV PUSH20 0xFFFFFFFFFFFFFFFFFFFFFFFFFFFFFFFFFFFFFFFF AND PUSH20 0xFFFFFFFFFFFFFFFFFFFFFFFFFFFFFFFFFFFFFFFF AND CALLER PUSH20 0xFFFFFFFFFFFFFFFFFFFFFFFFFFFFFFFFFFFFFFFF AND EQ PUSH2 0x6C4 JUMPI PUSH1 0x2 PUSH0 CALLER PUSH20 0xFFFFFFFFFFFFFFFFFFFFFFFFFFFFFFFFFFFFFFFF AND PUSH20 0xFFFFFFFFFFFFFFFFFFFFFFFFFFFFFFFFFFFFFFFF AND DUP2 MSTORE PUSH1 0x20 ADD SWAP1 DUP2 MSTORE PUSH1 0x20 ADD PUSH0 KECCAK256 PUSH0 SWAP1 SLOAD SWAP1 PUSH2 0x100 EXP SWAP1 DIV PUSH1 0xFF AND PUSH2 0x5F0 JUMPI PUSH1 0x40 MLOAD PUSH32 0x8C379A000000000000000000000000000000000000000000000000000000000 DUP2 MSTORE PUSH1 0x4 ADD PUSH2 0x5E7 SWAP1 PUSH2 0x10AF JUMP JUMPDEST PUSH1 0x40 MLOAD DUP1 SWAP2 SUB SWAP1 REVERT JUMPDEST DUP3 PUSH1 0x1 PUSH0 CALLER PUSH20 0xFFFFFFFFFFFFFFFFFFFFFFFFFFFFFFFFFFFFFFFF AND PUSH20 0xFFFFFFFFFFFFFFFFFFFFFFFFFFFFFFFFFFFFFFFF AND DUP2 MSTORE PUSH1 0x20 ADD SWAP1 DUP2 MSTORE PUSH1 0x20 ADD PUSH0 KECCAK256 SLOAD LT ISZERO PUSH2 0x670 JUMPI PUSH1 0x40 MLOAD PUSH32 0x8C379A000000000000000000000000000000000000000000000000000000000 DUP2 MSTORE PUSH1 0x4 ADD PUSH2 0x667 SWAP1 PUSH2 0x1163 JUMP JUMPDEST PUSH1 0x40 MLOAD DUP1 SWAP2 SUB SWAP1 REVERT JUMPDEST DUP3 PUSH1 0x1 PUSH0 CALLER PUSH20 0xFFFFFFFFFFFFFFFFFFFFFFFFFFFFFFFFFFFFFFFF AND PUSH20 0xFFFFFFFFFFFFFFFFFFFFFFFFFFFFFFFFFFFFFFFF AND DUP2 MSTORE PUSH1 0x20 ADD SWAP1 DUP2 MSTORE PUSH1 0x20 ADD PUSH0 KECCAK256 PUSH0 DUP3 DUP3 SLOAD PUSH2 0x6BC SWAP2 SWAP1 PUSH2 0x11AE JUMP JUMPDEST SWAP3 POP POP DUP2 SWAP1 SSTORE POP JUMPDEST PUSH0 DUP1 DUP6 PUSH20 0xFFFFFFFFFFFFFFFFFFFFFFFFFFFFFFFFFFFFFFFF AND DUP6 DUP6 PUSH1 0x40 MLOAD PUSH2 0x6EC SWAP2 SWAP1 PUSH2 0x121B JUMP JUMPDEST PUSH0 PUSH1 0x40 MLOAD DUP1 DUP4 SUB DUP2 DUP6 DUP8 GAS CALL SWAP3 POP POP POP RETURNDATASIZE DUP1 PUSH0 DUP2 EQ PUSH2 0x726 JUMPI PUSH1 0x40 MLOAD SWAP2 POP PUSH1 0x1F NOT PUSH1 0x3F RETURNDATASIZE ADD AND DUP3 ADD PUSH1 0x40 MSTORE RETURNDATASIZE DUP3 MSTORE RETURNDATASIZE PUSH0 PUSH1 0x20 DUP5 ADD RETURNDATACOPY PUSH2 0x72B JUMP JUMPDEST PUSH1 0x60 SWAP2 POP JUMPDEST POP SWAP2 POP SWAP2 POP DUP2 PUSH2 0x770 JUMPI PUSH1 0x40 MLOAD PUSH32 0x8C379A000000000000000000000000000000000000000000000000000000000 DUP2 MSTORE PUSH1 0x4 ADD PUSH2 0x767 SWAP1 PUSH2 0x12A1 JUMP JUMPDEST PUSH1 0x40 MLOAD DUP1 SWAP2 SUB SWAP1 REVERT JUMPDEST DUP1 SWAP3 POP POP POP SWAP4 SWAP3 POP POP POP JUMP JUMPDEST PUSH0 DUP1 SLOAD SWAP1 PUSH2 0x100 EXP SWAP1 DIV PUSH20 0xFFFFFFFFFFFFFFFFFFFFFFFFFFFFFFFFFFFFFFFF AND DUP2 JUMP JUMPDEST PUSH1 0x3 PUSH0 CALLER PUSH20 0xFFFFFFFFFFFFFFFFFFFFFFFFFFFFFFFFFFFFFFFF AND PUSH20 0xFFFFFFFFFFFFFFFFFFFFFFFFFFFFFFFFFFFFFFFF AND DUP2 MSTORE PUSH1 0x20 ADD SWAP1 DUP2 MSTORE PUSH1 0x20 ADD PUSH0 KECCAK256 PUSH0 SWAP1 SLOAD SWAP1 PUSH2 0x100 EXP SWAP1 DIV PUSH1 0xFF AND PUSH2 0x828 JUMPI PUSH1 0x40 MLOAD PUSH32 0x8C379A000000000000000000000000000000000000000000000000000000000 DUP2 MSTORE PUSH1 0x4 ADD PUSH2 0x81F SWAP1 PUSH2 0x132F JUMP JUMPDEST PUSH1 0x40 MLOAD DUP1 SWAP2 SUB SWAP1 REVERT JUMPDEST PUSH0 ISZERO ISZERO PUSH1 0x5 PUSH0 DUP4 PUSH20 0xFFFFFFFFFFFFFFFFFFFFFFFFFFFFFFFFFFFFFFFF AND PUSH20 0xFFFFFFFFFFFFFFFFFFFFFFFFFFFFFFFFFFFFFFFF AND DUP2 MSTORE PUSH1 0x20 ADD SWAP1 DUP2 MSTORE PUSH1 0x20 ADD PUSH0 KECCAK256 PUSH0 CALLER PUSH20 0xFFFFFFFFFFFFFFFFFFFFFFFFFFFFFFFFFFFFFFFF AND PUSH20 0xFFFFFFFFFFFFFFFFFFFFFFFFFFFFFFFFFFFFFFFF AND DUP2 MSTORE PUSH1 0x20 ADD SWAP1 DUP2 MSTORE PUSH1 0x20 ADD PUSH0 KECCAK256 PUSH0 SWAP1 SLOAD SWAP1 PUSH2 0x100 EXP SWAP1 DIV PUSH1 0xFF AND ISZERO ISZERO EQ PUSH2 0x8F2 JUMPI PUSH1 0x40 MLOAD PUSH32 0x8C379A000000000000000000000000000000000000000000000000000000000 DUP2 MSTORE PUSH1 0x4 ADD PUSH2 0x8E9 SWAP1 PUSH2 0x1397 JUMP JUMPDEST PUSH1 0x40 MLOAD DUP1 SWAP2 SUB SWAP1 REVERT JUMPDEST PUSH1 0x4 PUSH0 SWAP1 SLOAD SWAP1 PUSH2 0x100 EXP SWAP1 DIV PUSH20 0xFFFFFFFFFFFFFFFFFFFFFFFFFFFFFFFFFFFFFFFF AND PUSH20 0xFFFFFFFFFFFFFFFFFFFFFFFFFFFFFFFFFFFFFFFF AND DUP2 PUSH20 0xFFFFFFFFFFFFFFFFFFFFFFFFFFFFFFFFFFFFFFFF AND EQ PUSH2 0x98E JUMPI DUP1 PUSH1 0x4 PUSH0 PUSH2 0x100 EXP DUP2 SLOAD DUP2 PUSH20 0xFFFFFFFFFFFFFFFFFFFFFFFFFFFFFFFFFFFFFFFF MUL NOT AND SWAP1 DUP4 PUSH20 0xFFFFFFFFFFFFFFFFFFFFFFFFFFFFFFFFFFFFFFFF AND MUL OR SWAP1 SSTORE POP PUSH0 PUSH1 0x6 DUP2 SWAP1 SSTORE POP JUMPDEST PUSH1 0x6 PUSH0 DUP2 SLOAD DUP1 SWAP3 SWAP2 SWAP1 PUSH2 0x9A0 SWAP1 PUSH2 0x13B5 JUMP JUMPDEST SWAP2 SWAP1 POP SSTORE POP PUSH1 0x3 PUSH1 0x6 SLOAD LT PUSH2 0xA50 JUMPI PUSH1 0x4 PUSH0 SWAP1 SLOAD SWAP1 PUSH2 0x100 EXP SWAP1 DIV PUSH20 0xFFFFFFFFFFFFFFFFFFFFFFFFFFFFFFFFFFFFFFFF AND PUSH0 DUP1 PUSH2 0x100 EXP DUP2 SLOAD DUP2 PUSH20 0xFFFFFFFFFFFFFFFFFFFFFFFFFFFFFFFFFFFFFFFF MUL NOT AND SWAP1 DUP4 PUSH20 0xFFFFFFFFFFFFFFFFFFFFFFFFFFFFFFFFFFFFFFFF AND MUL OR SWAP1 SSTORE POP PUSH0 PUSH1 0x4 PUSH0 PUSH2 0x100 EXP DUP2 SLOAD DUP2 PUSH20 0xFFFFFFFFFFFFFFFFFFFFFFFFFFFFFFFFFFFFFFFF MUL NOT AND SWAP1 DUP4 PUSH20 0xFFFFFFFFFFFFFFFFFFFFFFFFFFFFFFFFFFFFFFFF AND MUL OR SWAP1 SSTORE POP JUMPDEST POP JUMP JUMPDEST PUSH0 PUSH1 0x40 MLOAD SWAP1 POP SWAP1 JUMP JUMPDEST PUSH0 DUP1 REVERT JUMPDEST PUSH0 DUP1 REVERT JUMPDEST PUSH0 PUSH20 0xFFFFFFFFFFFFFFFFFFFFFFFFFFFFFFFFFFFFFFFF DUP3 AND SWAP1 POP SWAP2 SWAP1 POP JUMP JUMPDEST PUSH0 PUSH2 0xA8D DUP3 PUSH2 0xA64 JUMP JUMPDEST SWAP1 POP SWAP2 SWAP1 POP JUMP JUMPDEST PUSH2 0xA9D DUP2 PUSH2 0xA83 JUMP JUMPDEST DUP2 EQ PUSH2 0xAA7 JUMPI PUSH0 DUP1 REVERT JUMPDEST POP JUMP JUMPDEST PUSH0 DUP2 CALLDATALOAD SWAP1 POP PUSH2 0xAB8 DUP2 PUSH2 0xA94 JUMP JUMPDEST SWAP3 SWAP2 POP POP JUMP JUMPDEST PUSH0 PUSH1 0x20 DUP3 DUP5 SUB SLT ISZERO PUSH2 0xAD3 JUMPI PUSH2 0xAD2 PUSH2 0xA5C JUMP JUMPDEST JUMPDEST PUSH0 PUSH2 0xAE0 DUP5 DUP3 DUP6 ADD PUSH2 0xAAA JUMP JUMPDEST SWAP2 POP POP SWAP3 SWAP2 POP POP JUMP JUMPDEST PUSH0 DUP2 ISZERO ISZERO SWAP1 POP SWAP2 SWAP1 POP JUMP JUMPDEST PUSH2 0xAFD DUP2 PUSH2 0xAE9 JUMP JUMPDEST DUP3 MSTORE POP POP JUMP JUMPDEST PUSH0 PUSH1 0x20 DUP3 ADD SWAP1 POP PUSH2 0xB16 PUSH0 DUP4 ADD DUP5 PUSH2 0xAF4 JUMP JUMPDEST SWAP3 SWAP2 POP POP JUMP JUMPDEST PUSH2 0xB25 DUP2 PUSH2 0xAE9 JUMP JUMPDEST DUP2 EQ PUSH2 0xB2F JUMPI PUSH0 DUP1 REVERT JUMPDEST POP JUMP JUMPDEST PUSH0 DUP2 CALLDATALOAD SWAP1 POP PUSH2 0xB40 DUP2 PUSH2 0xB1C JUMP JUMPDEST SWAP3 SWAP2 POP POP JUMP JUMPDEST PUSH0 DUP1 PUSH1 0x40 DUP4 DUP6 SUB SLT ISZERO PUSH2 0xB5C JUMPI PUSH2 0xB5B PUSH2 0xA5C JUMP JUMPDEST JUMPDEST PUSH0 PUSH2 0xB69 DUP6 DUP3 DUP7 ADD PUSH2 0xAAA JUMP JUMPDEST SWAP3 POP POP PUSH1 0x20 PUSH2 0xB7A DUP6 DUP3 DUP7 ADD PUSH2 0xB32 JUMP JUMPDEST SWAP2 POP POP SWAP3 POP SWAP3 SWAP1 POP JUMP JUMPDEST PUSH0 DUP2 SWAP1 POP SWAP2 SWAP1 POP JUMP JUMPDEST PUSH2 0xB96 DUP2 PUSH2 0xB84 JUMP JUMPDEST DUP2 EQ PUSH2 0xBA0 JUMPI PUSH0 DUP1 REVERT JUMPDEST POP JUMP JUMPDEST PUSH0 DUP2 CALLDATALOAD SWAP1 POP PUSH2 0xBB1 DUP2 PUSH2 0xB8D JUMP JUMPDEST SWAP3 SWAP2 POP POP JUMP JUMPDEST PUSH0 DUP1 PUSH1 0x40 DUP4 DUP6 SUB SLT ISZERO PUSH2 0xBCD JUMPI PUSH2 0xBCC PUSH2 0xA5C JUMP JUMPDEST JUMPDEST PUSH0 PUSH2 0xBDA DUP6 DUP3 DUP7 ADD PUSH2 0xAAA JUMP JUMPDEST SWAP3 POP POP PUSH1 0x20 PUSH2 0xBEB DUP6 DUP3 DUP7 ADD PUSH2 0xBA3 JUMP JUMPDEST SWAP2 POP POP SWAP3 POP SWAP3 SWAP1 POP JUMP JUMPDEST PUSH2 0xBFE DUP2 PUSH2 0xB84 JUMP JUMPDEST DUP3 MSTORE POP POP JUMP JUMPDEST PUSH0 PUSH1 0x20 DUP3 ADD SWAP1 POP PUSH2 0xC17 PUSH0 DUP4 ADD DUP5 PUSH2 0xBF5 JUMP JUMPDEST SWAP3 SWAP2 POP POP JUMP JUMPDEST PUSH0 PUSH2 0xC27 DUP3 PUSH2 0xA64 JUMP JUMPDEST SWAP1 POP SWAP2 SWAP1 POP JUMP JUMPDEST PUSH2 0xC37 DUP2 PUSH2 0xC1D JUMP JUMPDEST DUP2 EQ PUSH2 0xC41 JUMPI PUSH0 DUP1 REVERT JUMPDEST POP JUMP JUMPDEST PUSH0 DUP2 CALLDATALOAD SWAP1 POP PUSH2 0xC52 DUP2 PUSH2 0xC2E JUMP JUMPDEST SWAP3 SWAP2 POP POP JUMP JUMPDEST PUSH0 DUP1 REVERT JUMPDEST PUSH0 DUP1 REVERT JUMPDEST PUSH0 PUSH1 0x1F NOT PUSH1 0x1F DUP4 ADD AND SWAP1 POP SWAP2 SWAP1 POP JUMP JUMPDEST PUSH32 0x4E487B7100000000000000000000000000000000000000000000000000000000 PUSH0 MSTORE PUSH1 0x41 PUSH1 0x4 MSTORE PUSH1 0x24 PUSH0 REVERT JUMPDEST PUSH2 0xCA6 DUP3 PUSH2 0xC60 JUMP JUMPDEST DUP2 ADD DUP2 DUP2 LT PUSH8 0xFFFFFFFFFFFFFFFF DUP3 GT OR ISZERO PUSH2 0xCC5 JUMPI PUSH2 0xCC4 PUSH2 0xC70 JUMP JUMPDEST JUMPDEST DUP1 PUSH1 0x40 MSTORE POP POP POP JUMP JUMPDEST PUSH0 PUSH2 0xCD7 PUSH2 0xA53 JUMP JUMPDEST SWAP1 POP PUSH2 0xCE3 DUP3 DUP3 PUSH2 0xC9D JUMP JUMPDEST SWAP2 SWAP1 POP JUMP JUMPDEST PUSH0 PUSH8 0xFFFFFFFFFFFFFFFF DUP3 GT ISZERO PUSH2 0xD02 JUMPI PUSH2 0xD01 PUSH2 0xC70 JUMP JUMPDEST JUMPDEST PUSH2 0xD0B DUP3 PUSH2 0xC60 JUMP JUMPDEST SWAP1 POP PUSH1 0x20 DUP2 ADD SWAP1 POP SWAP2 SWAP1 POP JUMP JUMPDEST DUP3 DUP2 DUP4 CALLDATACOPY PUSH0 DUP4 DUP4 ADD MSTORE POP POP POP JUMP JUMPDEST PUSH0 PUSH2 0xD38 PUSH2 0xD33 DUP5 PUSH2 0xCE8 JUMP JUMPDEST PUSH2 0xCCE JUMP JUMPDEST SWAP1 POP DUP3 DUP2 MSTORE PUSH1 0x20 DUP2 ADD DUP5 DUP5 DUP5 ADD GT ISZERO PUSH2 0xD54 JUMPI PUSH2 0xD53 PUSH2 0xC5C JUMP JUMPDEST JUMPDEST PUSH2 0xD5F DUP5 DUP3 DUP6 PUSH2 0xD18 JUMP JUMPDEST POP SWAP4 SWAP3 POP POP POP JUMP JUMPDEST PUSH0 DUP3 PUSH1 0x1F DUP4 ADD SLT PUSH2 0xD7B JUMPI PUSH2 0xD7A PUSH2 0xC58 JUMP JUMPDEST JUMPDEST DUP2 CALLDATALOAD PUSH2 0xD8B DUP5 DUP3 PUSH1 0x20 DUP7 ADD PUSH2 0xD26 JUMP JUMPDEST SWAP2 POP POP SWAP3 SWAP2 POP POP JUMP JUMPDEST PUSH0 DUP1 PUSH0 PUSH1 0x60 DUP5 DUP7 SUB SLT ISZERO PUSH2 0xDAB JUMPI PUSH2 0xDAA PUSH2 0xA5C JUMP JUMPDEST JUMPDEST PUSH0 PUSH2 0xDB8 DUP7 DUP3 DUP8 ADD PUSH2 0xC44 JUMP JUMPDEST SWAP4 POP POP PUSH1 0x20 PUSH2 0xDC9 DUP7 DUP3 DUP8 ADD PUSH2 0xBA3 JUMP JUMPDEST SWAP3 POP POP PUSH1 0x40 DUP5 ADD CALLDATALOAD PUSH8 0xFFFFFFFFFFFFFFFF DUP2 GT ISZERO PUSH2 0xDEA JUMPI PUSH2 0xDE9 PUSH2 0xA60 JUMP JUMPDEST JUMPDEST PUSH2 0xDF6 DUP7 DUP3 DUP8 ADD PUSH2 0xD67 JUMP JUMPDEST SWAP2 POP POP SWAP3 POP SWAP3 POP SWAP3 JUMP JUMPDEST PUSH0 DUP2 MLOAD SWAP1 POP SWAP2 SWAP1 POP JUMP JUMPDEST PUSH0 DUP3 DUP3 MSTORE PUSH1 0x20 DUP3 ADD SWAP1 POP SWAP3 SWAP2 POP POP JUMP JUMPDEST PUSH0 JUMPDEST DUP4 DUP2 LT ISZERO PUSH2 0xE37 JUMPI DUP1 DUP3 ADD MLOAD DUP2 DUP5 ADD MSTORE PUSH1 0x20 DUP2 ADD SWAP1 POP PUSH2 0xE1C JUMP JUMPDEST PUSH0 DUP5 DUP5 ADD MSTORE POP POP POP POP JUMP JUMPDEST PUSH0 PUSH2 0xE4C DUP3 PUSH2 0xE00 JUMP JUMPDEST PUSH2 0xE56 DUP2 DUP6 PUSH2 0xE0A JUMP JUMPDEST SWAP4 POP PUSH2 0xE66 DUP2 DUP6 PUSH1 0x20 DUP7 ADD PUSH2 0xE1A JUMP JUMPDEST PUSH2 0xE6F DUP2 PUSH2 0xC60 JUMP JUMPDEST DUP5 ADD SWAP2 POP POP SWAP3 SWAP2 POP POP JUMP JUMPDEST PUSH0 PUSH1 0x20 DUP3 ADD SWAP1 POP DUP2 DUP2 SUB PUSH0 DUP4 ADD MSTORE PUSH2 0xE92 DUP2 DUP5 PUSH2 0xE42 JUMP JUMPDEST SWAP1 POP SWAP3 SWAP2 POP POP JUMP JUMPDEST PUSH2 0xEA3 DUP2 PUSH2 0xC1D JUMP JUMPDEST DUP3 MSTORE POP POP JUMP JUMPDEST PUSH0 PUSH1 0x20 DUP3 ADD SWAP1 POP PUSH2 0xEBC PUSH0 DUP4 ADD DUP5 PUSH2 0xE9A JUMP JUMPDEST SWAP3 SWAP2 POP POP JUMP JUMPDEST PUSH0 PUSH1 0x20 DUP3 DUP5 SUB SLT ISZERO PUSH2 0xED7 JUMPI PUSH2 0xED6 PUSH2 0xA5C JUMP JUMPDEST JUMPDEST PUSH0 PUSH2 0xEE4 DUP5 DUP3 DUP6 ADD PUSH2 0xC44 JUMP JUMPDEST SWAP2 POP POP SWAP3 SWAP2 POP POP JUMP JUMPDEST PUSH0 DUP3 DUP3 MSTORE PUSH1 0x20 DUP3 ADD SWAP1 POP SWAP3 SWAP2 POP POP JUMP JUMPDEST PUSH32 0x596F7520617265206E6F7420746865206F776E65722E20596F752063616E6E6F PUSH0 DUP3 ADD MSTORE PUSH32 0x7420736574206120677561726469616E2C2061626F7274696E672E2E2E210000 PUSH1 0x20 DUP3 ADD MSTORE POP JUMP JUMPDEST PUSH0 PUSH2 0xF57 PUSH1 0x3E DUP4 PUSH2 0xEED JUMP JUMPDEST SWAP2 POP PUSH2 0xF62 DUP3 PUSH2 0xEFD JUMP JUMPDEST PUSH1 0x40 DUP3 ADD SWAP1 POP SWAP2 SWAP1 POP JUMP JUMPDEST PUSH0 PUSH1 0x20 DUP3 ADD SWAP1 POP DUP2 DUP2 SUB PUSH0 DUP4 ADD MSTORE PUSH2 0xF84 DUP2 PUSH2 0xF4B JUMP JUMPDEST SWAP1 POP SWAP2 SWAP1 POP JUMP JUMPDEST PUSH32 0x596F7520617265206E6F7420746865206F776E65722E20596F752063616E6E6F PUSH0 DUP3 ADD MSTORE PUSH32 0x742073657420616C6C6F77616E63652C2061626F7274696E672E2E2E21000000 PUSH1 0x20 DUP3 ADD MSTORE POP JUMP JUMPDEST PUSH0 PUSH2 0xFE5 PUSH1 0x3D DUP4 PUSH2 0xEED JUMP JUMPDEST SWAP2 POP PUSH2 0xFF0 DUP3 PUSH2 0xF8B JUMP JUMPDEST PUSH1 0x40 DUP3 ADD SWAP1 POP SWAP2 SWAP1 POP JUMP JUMPDEST PUSH0 PUSH1 0x20 DUP3 ADD SWAP1 POP DUP2 DUP2 SUB PUSH0 DUP4 ADD MSTORE PUSH2 0x1012 DUP2 PUSH2 0xFD9 JUMP JUMPDEST SWAP1 POP SWAP2 SWAP1 POP JUMP JUMPDEST PUSH32 0x596F7520617265206E6F7420616C6C6F77656420746F2073656E6420616E7974 PUSH0 DUP3 ADD MSTORE PUSH32 0x68696E672066726F6D207468697320636F6E74726163742C2061626F7274696E PUSH1 0x20 DUP3 ADD MSTORE PUSH32 0x672E2E2E21000000000000000000000000000000000000000000000000000000 PUSH1 0x40 DUP3 ADD MSTORE POP JUMP JUMPDEST PUSH0 PUSH2 0x1099 PUSH1 0x45 DUP4 PUSH2 0xEED JUMP JUMPDEST SWAP2 POP PUSH2 0x10A4 DUP3 PUSH2 0x1019 JUMP JUMPDEST PUSH1 0x60 DUP3 ADD SWAP1 POP SWAP2 SWAP1 POP JUMP JUMPDEST PUSH0 PUSH1 0x20 DUP3 ADD SWAP1 POP DUP2 DUP2 SUB PUSH0 DUP4 ADD MSTORE PUSH2 0x10C6 DUP2 PUSH2 0x108D JUMP JUMPDEST SWAP1 POP SWAP2 SWAP1 POP JUMP JUMPDEST PUSH32 0x596F752061726520747279696E6720746F2073656E64206D6F7265207468616E PUSH0 DUP3 ADD MSTORE PUSH32 0x20796F752061726520616C6C6F77656420746F2C2061626F7274696E672E2E2E PUSH1 0x20 DUP3 ADD MSTORE PUSH32 0x2100000000000000000000000000000000000000000000000000000000000000 PUSH1 0x40 DUP3 ADD MSTORE POP JUMP JUMPDEST PUSH0 PUSH2 0x114D PUSH1 0x41 DUP4 PUSH2 0xEED JUMP JUMPDEST SWAP2 POP PUSH2 0x1158 DUP3 PUSH2 0x10CD JUMP JUMPDEST PUSH1 0x60 DUP3 ADD SWAP1 POP SWAP2 SWAP1 POP JUMP JUMPDEST PUSH0 PUSH1 0x20 DUP3 ADD SWAP1 POP DUP2 DUP2 SUB PUSH0 DUP4 ADD MSTORE PUSH2 0x117A DUP2 PUSH2 0x1141 JUMP JUMPDEST SWAP1 POP SWAP2 SWAP1 POP JUMP JUMPDEST PUSH32 0x4E487B7100000000000000000000000000000000000000000000000000000000 PUSH0 MSTORE PUSH1 0x11 PUSH1 0x4 MSTORE PUSH1 0x24 PUSH0 REVERT JUMPDEST PUSH0 PUSH2 0x11B8 DUP3 PUSH2 0xB84 JUMP JUMPDEST SWAP2 POP PUSH2 0x11C3 DUP4 PUSH2 0xB84 JUMP JUMPDEST SWAP3 POP DUP3 DUP3 SUB SWAP1 POP DUP2 DUP2 GT ISZERO PUSH2 0x11DB JUMPI PUSH2 0x11DA PUSH2 0x1181 JUMP JUMPDEST JUMPDEST SWAP3 SWAP2 POP POP JUMP JUMPDEST PUSH0 DUP2 SWAP1 POP SWAP3 SWAP2 POP POP JUMP JUMPDEST PUSH0 PUSH2 0x11F5 DUP3 PUSH2 0xE00 JUMP JUMPDEST PUSH2 0x11FF DUP2 DUP6 PUSH2 0x11E1 JUMP JUMPDEST SWAP4 POP PUSH2 0x120F DUP2 DUP6 PUSH1 0x20 DUP7 ADD PUSH2 0xE1A JUMP JUMPDEST DUP1 DUP5 ADD SWAP2 POP POP SWAP3 SWAP2 POP POP JUMP JUMPDEST PUSH0 PUSH2 0x1226 DUP3 DUP5 PUSH2 0x11EB JUMP JUMPDEST SWAP2 POP DUP2 SWAP1 POP SWAP3 SWAP2 POP POP JUMP JUMPDEST PUSH32 0x43616C6C2066756E6374696F6E206973206E6F74207375636365737366756C2C PUSH0 DUP3 ADD MSTORE PUSH32 0x2061626F7274696E672E2E2E2100000000000000000000000000000000000000 PUSH1 0x20 DUP3 ADD MSTORE POP JUMP JUMPDEST PUSH0 PUSH2 0x128B PUSH1 0x2D DUP4 PUSH2 0xEED JUMP JUMPDEST SWAP2 POP PUSH2 0x1296 DUP3 PUSH2 0x1231 JUMP JUMPDEST PUSH1 0x40 DUP3 ADD SWAP1 POP SWAP2 SWAP1 POP JUMP JUMPDEST PUSH0 PUSH1 0x20 DUP3 ADD SWAP1 POP DUP2 DUP2 SUB PUSH0 DUP4 ADD MSTORE PUSH2 0x12B8 DUP2 PUSH2 0x127F JUMP JUMPDEST SWAP1 POP SWAP2 SWAP1 POP JUMP JUMPDEST PUSH32 0x596F7520617265206E6F742074686520677561726469616E206F662074686973 PUSH0 DUP3 ADD MSTORE PUSH32 0x2077616C6C65742C2061626F7274696E672E2E2E210000000000000000000000 PUSH1 0x20 DUP3 ADD MSTORE POP JUMP JUMPDEST PUSH0 PUSH2 0x1319 PUSH1 0x35 DUP4 PUSH2 0xEED JUMP JUMPDEST SWAP2 POP PUSH2 0x1324 DUP3 PUSH2 0x12BF JUMP JUMPDEST PUSH1 0x40 DUP3 ADD SWAP1 POP SWAP2 SWAP1 POP JUMP JUMPDEST PUSH0 PUSH1 0x20 DUP3 ADD SWAP1 POP DUP2 DUP2 SUB PUSH0 DUP4 ADD MSTORE PUSH2 0x1346 DUP2 PUSH2 0x130D JUMP JUMPDEST SWAP1 POP SWAP2 SWAP1 POP JUMP JUMPDEST PUSH32 0x596F7520616C726561647420766F7465642C2061626F7274696E672E2E2E2100 PUSH0 DUP3 ADD MSTORE POP JUMP JUMPDEST PUSH0 PUSH2 0x1381 PUSH1 0x1F DUP4 PUSH2 0xEED JUMP JUMPDEST SWAP2 POP PUSH2 0x138C DUP3 PUSH2 0x134D JUMP JUMPDEST PUSH1 0x20 DUP3 ADD SWAP1 POP SWAP2 SWAP1 POP JUMP JUMPDEST PUSH0 PUSH1 0x20 DUP3 ADD SWAP1 POP DUP2 DUP2 SUB PUSH0 DUP4 ADD MSTORE PUSH2 0x13AE DUP2 PUSH2 0x1375 JUMP JUMPDEST SWAP1 POP SWAP2 SWAP1 POP JUMP JUMPDEST PUSH0 PUSH2 0x13BF DUP3 PUSH2 0xB84 JUMP JUMPDEST SWAP2 POP PUSH32 0xFFFFFFFFFFFFFFFFFFFFFFFFFFFFFFFFFFFFFFFFFFFFFFFFFFFFFFFFFFFFFFFF DUP3 SUB PUSH2 0x13F1 JUMPI PUSH2 0x13F0 PUSH2 0x1181 JUMP JUMPDEST JUMPDEST PUSH1 0x1 DUP3 ADD SWAP1 POP SWAP2 SWAP1 POP JUMP INVALID LOG2 PUSH5 0x6970667358 0x22 SLT KECCAK256 0xED DUP13 PUSH23 0x14CFCB4332F18551AB227ECB6045F05FAE83A796DDB8FC BLOCKHASH SWAP2 DUP10 POP 0x1F GAS PUSH5 0x736F6C6343 STOP ADDMOD EQ STOP CALLER "
				},
				"gasEstimates": {
					"creation": {
						"codeDepositCost": "1034000",
						"executionCost": "25337",
						"totalCost": "1059337"
					},
					"external": {
						"Transfer(address,uint256,bytes)": "infinite",
						"allowance(address)": "2802",
						"confirmationsFromGuardiansForReset()": "347",
						"guardians(address)": "2834",
						"isAllowedToSend(address)": "2856",
						"owner()": "2571",
						"proposeNewOwner(address)": "63046",
						"setAllowance(address,uint256)": "49445",
						"setGuardian(address,bool)": "27191"
					}
				},
				"methodIdentifiers": {
					"Transfer(address,uint256,bytes)": "850a6919",
					"allowance(address)": "3e5beab9",
					"confirmationsFromGuardiansForReset()": "83012be1",
					"guardians(address)": "0633b14a",
					"isAllowedToSend(address)": "0bc605ad",
					"owner()": "8da5cb5b",
					"proposeNewOwner(address)": "b1f8100d",
					"setAllowance(address,uint256)": "310ec4a7",
					"setGuardian(address,bool)": "2b8a1c5a"
				}
			},
			"storageLayout": {
				"storage": [
					{
						"astId": 20,
						"contract": "contracts/SmartContractWallet.sol:SmartContractWallet",
						"label": "owner",
						"offset": 0,
						"slot": "0",
						"type": "t_address_payable"
					},
					{
						"astId": 24,
						"contract": "contracts/SmartContractWallet.sol:SmartContractWallet",
						"label": "allowance",
						"offset": 0,
						"slot": "1",
						"type": "t_mapping(t_address,t_uint256)"
					},
					{
						"astId": 28,
						"contract": "contracts/SmartContractWallet.sol:SmartContractWallet",
						"label": "isAllowedToSend",
						"offset": 0,
						"slot": "2",
						"type": "t_mapping(t_address,t_bool)"
					},
					{
						"astId": 32,
						"contract": "contracts/SmartContractWallet.sol:SmartContractWallet",
						"label": "guardians",
						"offset": 0,
						"slot": "3",
						"type": "t_mapping(t_address,t_bool)"
					},
					{
						"astId": 34,
						"contract": "contracts/SmartContractWallet.sol:SmartContractWallet",
						"label": "nextOwner",
						"offset": 0,
						"slot": "4",
						"type": "t_address_payable"
					},
					{
						"astId": 40,
						"contract": "contracts/SmartContractWallet.sol:SmartContractWallet",
						"label": "nextOwnerGuardianVoteBool",
						"offset": 0,
						"slot": "5",
						"type": "t_mapping(t_address,t_mapping(t_address,t_bool))"
					},
					{
						"astId": 42,
						"contract": "contracts/SmartContractWallet.sol:SmartContractWallet",
						"label": "guardiansResetCount",
						"offset": 0,
						"slot": "6",
						"type": "t_uint256"
					}
				],
				"types": {
					"t_address": {
						"encoding": "inplace",
						"label": "address",
						"numberOfBytes": "20"
					},
					"t_address_payable": {
						"encoding": "inplace",
						"label": "address payable",
						"numberOfBytes": "20"
					},
					"t_bool": {
						"encoding": "inplace",
						"label": "bool",
						"numberOfBytes": "1"
					},
					"t_mapping(t_address,t_bool)": {
						"encoding": "mapping",
						"key": "t_address",
						"label": "mapping(address => bool)",
						"numberOfBytes": "32",
						"value": "t_bool"
					},
					"t_mapping(t_address,t_mapping(t_address,t_bool))": {
						"encoding": "mapping",
						"key": "t_address",
						"label": "mapping(address => mapping(address => bool))",
						"numberOfBytes": "32",
						"value": "t_mapping(t_address,t_bool)"
					},
					"t_mapping(t_address,t_uint256)": {
						"encoding": "mapping",
						"key": "t_address",
						"label": "mapping(address => uint256)",
						"numberOfBytes": "32",
						"value": "t_uint256"
					},
					"t_uint256": {
						"encoding": "inplace",
						"label": "uint256",
						"numberOfBytes": "32"
					}
				}
			},
			"userdoc": {
				"kind": "user",
				"methods": {},
				"version": 1
			}
		}
	}
}